{
	"contracts/moneychanger-project/MoneyChanger.sol": {
		"MoneyChanger": {
			"abi": [
				{
					"inputs": [
						{
							"internalType": "contract IERC20",
							"name": "_token",
							"type": "address"
						},
						{
							"internalType": "uint256",
							"name": "_exchangeRate",
							"type": "uint256"
						}
					],
					"stateMutability": "nonpayable",
					"type": "constructor"
				},
				{
					"anonymous": false,
					"inputs": [
						{
							"indexed": false,
							"internalType": "uint256",
							"name": "newRate",
							"type": "uint256"
						}
					],
					"name": "ExchangeRateUpdated",
					"type": "event"
				},
				{
					"anonymous": false,
					"inputs": [
						{
							"indexed": true,
							"internalType": "address",
							"name": "user",
							"type": "address"
						},
						{
							"indexed": false,
							"internalType": "uint256",
							"name": "ethAmount",
							"type": "uint256"
						},
						{
							"indexed": false,
							"internalType": "uint256",
							"name": "tokenAmount",
							"type": "uint256"
						}
					],
					"name": "Exchanged",
					"type": "event"
				},
				{
					"inputs": [],
					"name": "exchange",
					"outputs": [],
					"stateMutability": "payable",
					"type": "function"
				},
				{
					"inputs": [],
					"name": "exchangeRate",
					"outputs": [
						{
							"internalType": "uint256",
							"name": "",
							"type": "uint256"
						}
					],
					"stateMutability": "view",
					"type": "function"
				},
				{
					"inputs": [],
					"name": "owner",
					"outputs": [
						{
							"internalType": "address",
							"name": "",
							"type": "address"
						}
					],
					"stateMutability": "view",
					"type": "function"
				},
				{
					"inputs": [],
					"name": "token",
					"outputs": [
						{
							"internalType": "contract IERC20",
							"name": "",
							"type": "address"
						}
					],
					"stateMutability": "view",
					"type": "function"
				},
				{
					"inputs": [
						{
							"internalType": "uint256",
							"name": "_newRate",
							"type": "uint256"
						}
					],
					"name": "updateExchangeRate",
					"outputs": [],
					"stateMutability": "nonpayable",
					"type": "function"
				},
				{
					"inputs": [
						{
							"internalType": "uint256",
							"name": "_amount",
							"type": "uint256"
						}
					],
					"name": "withdrawEther",
					"outputs": [],
					"stateMutability": "nonpayable",
					"type": "function"
				},
				{
					"inputs": [
						{
							"internalType": "uint256",
							"name": "_amount",
							"type": "uint256"
						}
					],
					"name": "withdrawTokens",
					"outputs": [],
					"stateMutability": "nonpayable",
					"type": "function"
				},
				{
					"stateMutability": "payable",
					"type": "receive"
				}
			],
			"devdoc": {
				"kind": "dev",
				"methods": {},
				"version": 1
			},
			"evm": {
				"assembly": "    /* \"contracts/moneychanger-project/MoneyChanger.sol\":232:1715  contract MoneyChanger {... */\n  mstore(0x40, 0x80)\n    /* \"contracts/moneychanger-project/MoneyChanger.sol\":591:735  constructor(IERC20 _token, uint _exchangeRate) {... */\n  callvalue\n  dup1\n  iszero\n  tag_1\n  jumpi\n  0x00\n  dup1\n  revert\ntag_1:\n  pop\n  mload(0x40)\n  sub(codesize, bytecodeSize)\n  dup1\n  bytecodeSize\n  dup4\n  codecopy\n  dup2\n  dup2\n  add\n  0x40\n  mstore\n  dup2\n  add\n  swap1\n  tag_2\n  swap2\n  swap1\n  tag_3\n  jump\t// in\ntag_2:\n    /* \"contracts/moneychanger-project/MoneyChanger.sol\":656:666  msg.sender */\n  caller\n    /* \"contracts/moneychanger-project/MoneyChanger.sol\":648:653  owner */\n  0x00\n  dup1\n    /* \"contracts/moneychanger-project/MoneyChanger.sol\":648:666  owner = msg.sender */\n  0x0100\n  exp\n  dup2\n  sload\n  dup2\n  0xffffffffffffffffffffffffffffffffffffffff\n  mul\n  not\n  and\n  swap1\n  dup4\n  0xffffffffffffffffffffffffffffffffffffffff\n  and\n  mul\n  or\n  swap1\n  sstore\n  pop\n    /* \"contracts/moneychanger-project/MoneyChanger.sol\":684:690  _token */\n  dup2\n    /* \"contracts/moneychanger-project/MoneyChanger.sol\":676:681  token */\n  0x01\n  0x00\n    /* \"contracts/moneychanger-project/MoneyChanger.sol\":676:690  token = _token */\n  0x0100\n  exp\n  dup2\n  sload\n  dup2\n  0xffffffffffffffffffffffffffffffffffffffff\n  mul\n  not\n  and\n  swap1\n  dup4\n  0xffffffffffffffffffffffffffffffffffffffff\n  and\n  mul\n  or\n  swap1\n  sstore\n  pop\n    /* \"contracts/moneychanger-project/MoneyChanger.sol\":715:728  _exchangeRate */\n  dup1\n    /* \"contracts/moneychanger-project/MoneyChanger.sol\":700:712  exchangeRate */\n  0x02\n    /* \"contracts/moneychanger-project/MoneyChanger.sol\":700:728  exchangeRate = _exchangeRate */\n  dup2\n  swap1\n  sstore\n  pop\n    /* \"contracts/moneychanger-project/MoneyChanger.sol\":591:735  constructor(IERC20 _token, uint _exchangeRate) {... */\n  pop\n  pop\n    /* \"contracts/moneychanger-project/MoneyChanger.sol\":232:1715  contract MoneyChanger {... */\n  jump(tag_6)\n    /* \"#utility.yul\":88:205   */\ntag_8:\n    /* \"#utility.yul\":197:198   */\n  0x00\n    /* \"#utility.yul\":194:195   */\n  dup1\n    /* \"#utility.yul\":187:199   */\n  revert\n    /* \"#utility.yul\":334:460   */\ntag_10:\n    /* \"#utility.yul\":371:378   */\n  0x00\n    /* \"#utility.yul\":411:453   */\n  0xffffffffffffffffffffffffffffffffffffffff\n    /* \"#utility.yul\":404:409   */\n  dup3\n    /* \"#utility.yul\":400:454   */\n  and\n    /* \"#utility.yul\":389:454   */\n  swap1\n  pop\n    /* \"#utility.yul\":334:460   */\n  swap2\n  swap1\n  pop\n  jump\t// out\n    /* \"#utility.yul\":466:562   */\ntag_11:\n    /* \"#utility.yul\":503:510   */\n  0x00\n    /* \"#utility.yul\":532:556   */\n  tag_24\n    /* \"#utility.yul\":550:555   */\n  dup3\n    /* \"#utility.yul\":532:556   */\n  tag_10\n  jump\t// in\ntag_24:\n    /* \"#utility.yul\":521:556   */\n  swap1\n  pop\n    /* \"#utility.yul\":466:562   */\n  swap2\n  swap1\n  pop\n  jump\t// out\n    /* \"#utility.yul\":568:677   */\ntag_12:\n    /* \"#utility.yul\":618:625   */\n  0x00\n    /* \"#utility.yul\":647:671   */\n  tag_26\n    /* \"#utility.yul\":665:670   */\n  dup3\n    /* \"#utility.yul\":647:671   */\n  tag_11\n  jump\t// in\ntag_26:\n    /* \"#utility.yul\":636:671   */\n  swap1\n  pop\n    /* \"#utility.yul\":568:677   */\n  swap2\n  swap1\n  pop\n  jump\t// out\n    /* \"#utility.yul\":683:831   */\ntag_13:\n    /* \"#utility.yul\":769:806   */\n  tag_28\n    /* \"#utility.yul\":800:805   */\n  dup2\n    /* \"#utility.yul\":769:806   */\n  tag_12\n  jump\t// in\ntag_28:\n    /* \"#utility.yul\":762:767   */\n  dup2\n    /* \"#utility.yul\":759:807   */\n  eq\n    /* \"#utility.yul\":749:825   */\n  tag_29\n  jumpi\n    /* \"#utility.yul\":821:822   */\n  0x00\n    /* \"#utility.yul\":818:819   */\n  dup1\n    /* \"#utility.yul\":811:823   */\n  revert\n    /* \"#utility.yul\":749:825   */\ntag_29:\n    /* \"#utility.yul\":683:831   */\n  pop\n  jump\t// out\n    /* \"#utility.yul\":837:1006   */\ntag_14:\n    /* \"#utility.yul\":907:912   */\n  0x00\n    /* \"#utility.yul\":938:944   */\n  dup2\n    /* \"#utility.yul\":932:945   */\n  mload\n    /* \"#utility.yul\":923:945   */\n  swap1\n  pop\n    /* \"#utility.yul\":954:1000   */\n  tag_31\n    /* \"#utility.yul\":994:999   */\n  dup2\n    /* \"#utility.yul\":954:1000   */\n  tag_13\n  jump\t// in\ntag_31:\n    /* \"#utility.yul\":837:1006   */\n  swap3\n  swap2\n  pop\n  pop\n  jump\t// out\n    /* \"#utility.yul\":1012:1089   */\ntag_15:\n    /* \"#utility.yul\":1049:1056   */\n  0x00\n    /* \"#utility.yul\":1078:1083   */\n  dup2\n    /* \"#utility.yul\":1067:1083   */\n  swap1\n  pop\n    /* \"#utility.yul\":1012:1089   */\n  swap2\n  swap1\n  pop\n  jump\t// out\n    /* \"#utility.yul\":1095:1217   */\ntag_16:\n    /* \"#utility.yul\":1168:1192   */\n  tag_34\n    /* \"#utility.yul\":1186:1191   */\n  dup2\n    /* \"#utility.yul\":1168:1192   */\n  tag_15\n  jump\t// in\ntag_34:\n    /* \"#utility.yul\":1161:1166   */\n  dup2\n    /* \"#utility.yul\":1158:1193   */\n  eq\n    /* \"#utility.yul\":1148:1211   */\n  tag_35\n  jumpi\n    /* \"#utility.yul\":1207:1208   */\n  0x00\n    /* \"#utility.yul\":1204:1205   */\n  dup1\n    /* \"#utility.yul\":1197:1209   */\n  revert\n    /* \"#utility.yul\":1148:1211   */\ntag_35:\n    /* \"#utility.yul\":1095:1217   */\n  pop\n  jump\t// out\n    /* \"#utility.yul\":1223:1366   */\ntag_17:\n    /* \"#utility.yul\":1280:1285   */\n  0x00\n    /* \"#utility.yul\":1311:1317   */\n  dup2\n    /* \"#utility.yul\":1305:1318   */\n  mload\n    /* \"#utility.yul\":1296:1318   */\n  swap1\n  pop\n    /* \"#utility.yul\":1327:1360   */\n  tag_37\n    /* \"#utility.yul\":1354:1359   */\n  dup2\n    /* \"#utility.yul\":1327:1360   */\n  tag_16\n  jump\t// in\ntag_37:\n    /* \"#utility.yul\":1223:1366   */\n  swap3\n  swap2\n  pop\n  pop\n  jump\t// out\n    /* \"#utility.yul\":1372:1905   */\ntag_3:\n    /* \"#utility.yul\":1464:1470   */\n  0x00\n    /* \"#utility.yul\":1472:1478   */\n  dup1\n    /* \"#utility.yul\":1521:1523   */\n  0x40\n    /* \"#utility.yul\":1509:1518   */\n  dup4\n    /* \"#utility.yul\":1500:1507   */\n  dup6\n    /* \"#utility.yul\":1496:1519   */\n  sub\n    /* \"#utility.yul\":1492:1524   */\n  slt\n    /* \"#utility.yul\":1489:1608   */\n  iszero\n  tag_39\n  jumpi\n    /* \"#utility.yul\":1527:1606   */\n  tag_40\n  tag_8\n  jump\t// in\ntag_40:\n    /* \"#utility.yul\":1489:1608   */\ntag_39:\n    /* \"#utility.yul\":1647:1648   */\n  0x00\n    /* \"#utility.yul\":1672:1749   */\n  tag_41\n    /* \"#utility.yul\":1741:1748   */\n  dup6\n    /* \"#utility.yul\":1732:1738   */\n  dup3\n    /* \"#utility.yul\":1721:1730   */\n  dup7\n    /* \"#utility.yul\":1717:1739   */\n  add\n    /* \"#utility.yul\":1672:1749   */\n  tag_14\n  jump\t// in\ntag_41:\n    /* \"#utility.yul\":1662:1749   */\n  swap3\n  pop\n    /* \"#utility.yul\":1618:1759   */\n  pop\n    /* \"#utility.yul\":1798:1800   */\n  0x20\n    /* \"#utility.yul\":1824:1888   */\n  tag_42\n    /* \"#utility.yul\":1880:1887   */\n  dup6\n    /* \"#utility.yul\":1871:1877   */\n  dup3\n    /* \"#utility.yul\":1860:1869   */\n  dup7\n    /* \"#utility.yul\":1856:1878   */\n  add\n    /* \"#utility.yul\":1824:1888   */\n  tag_17\n  jump\t// in\ntag_42:\n    /* \"#utility.yul\":1814:1888   */\n  swap2\n  pop\n    /* \"#utility.yul\":1769:1898   */\n  pop\n    /* \"#utility.yul\":1372:1905   */\n  swap3\n  pop\n  swap3\n  swap1\n  pop\n  jump\t// out\n    /* \"contracts/moneychanger-project/MoneyChanger.sol\":232:1715  contract MoneyChanger {... */\ntag_6:\n  dataSize(sub_0)\n  dup1\n  dataOffset(sub_0)\n  0x00\n  codecopy\n  0x00\n  return\nstop\n\nsub_0: assembly {\n        /* \"contracts/moneychanger-project/MoneyChanger.sol\":232:1715  contract MoneyChanger {... */\n      mstore(0x40, 0x80)\n      jumpi(tag_1, lt(calldatasize, 0x04))\n      shr(0xe0, calldataload(0x00))\n      dup1\n      0x8da5cb5b\n      gt\n      tag_10\n      jumpi\n      dup1\n      0x8da5cb5b\n      eq\n      tag_6\n      jumpi\n      dup1\n      0xb9e205ae\n      eq\n      tag_7\n      jumpi\n      dup1\n      0xd2f7265a\n      eq\n      tag_8\n      jumpi\n      dup1\n      0xfc0c546a\n      eq\n      tag_9\n      jumpi\n      jump(tag_2)\n    tag_10:\n      dup1\n      0x315a095d\n      eq\n      tag_3\n      jumpi\n      dup1\n      0x3ba0b9a9\n      eq\n      tag_4\n      jumpi\n      dup1\n      0x3bed33ce\n      eq\n      tag_5\n      jumpi\n      jump(tag_2)\n    tag_1:\n      jumpi(tag_2, calldatasize)\n      stop\n    tag_2:\n      0x00\n      dup1\n      revert\n        /* \"contracts/moneychanger-project/MoneyChanger.sol\":1483:1678  function withdrawTokens(uint _amount) external onlyOwner {... */\n    tag_3:\n      callvalue\n      dup1\n      iszero\n      tag_13\n      jumpi\n      0x00\n      dup1\n      revert\n    tag_13:\n      pop\n      tag_14\n      0x04\n      dup1\n      calldatasize\n      sub\n      dup2\n      add\n      swap1\n      tag_15\n      swap2\n      swap1\n      tag_16\n      jump\t// in\n    tag_15:\n      tag_17\n      jump\t// in\n    tag_14:\n      stop\n        /* \"contracts/moneychanger-project/MoneyChanger.sol\":311:335  uint public exchangeRate */\n    tag_4:\n      callvalue\n      dup1\n      iszero\n      tag_18\n      jumpi\n      0x00\n      dup1\n      revert\n    tag_18:\n      pop\n      tag_19\n      tag_20\n      jump\t// in\n    tag_19:\n      mload(0x40)\n      tag_21\n      swap2\n      swap1\n      tag_22\n      jump\t// in\n    tag_21:\n      mload(0x40)\n      dup1\n      swap2\n      sub\n      swap1\n      return\n        /* \"contracts/moneychanger-project/MoneyChanger.sol\":1290:1477  function withdrawEther(uint _amount) external onlyOwner {... */\n    tag_5:\n      callvalue\n      dup1\n      iszero\n      tag_23\n      jumpi\n      0x00\n      dup1\n      revert\n    tag_23:\n      pop\n      tag_24\n      0x04\n      dup1\n      calldatasize\n      sub\n      dup2\n      add\n      swap1\n      tag_25\n      swap2\n      swap1\n      tag_16\n      jump\t// in\n    tag_25:\n      tag_26\n      jump\t// in\n    tag_24:\n      stop\n        /* \"contracts/moneychanger-project/MoneyChanger.sol\":260:280  address public owner */\n    tag_6:\n      callvalue\n      dup1\n      iszero\n      tag_27\n      jumpi\n      0x00\n      dup1\n      revert\n    tag_27:\n      pop\n      tag_28\n      tag_29\n      jump\t// in\n    tag_28:\n      mload(0x40)\n      tag_30\n      swap2\n      swap1\n      tag_31\n      jump\t// in\n    tag_30:\n      mload(0x40)\n      dup1\n      swap2\n      sub\n      swap1\n      return\n        /* \"contracts/moneychanger-project/MoneyChanger.sol\":1138:1284  function updateExchangeRate(uint _newRate) external onlyOwner {... */\n    tag_7:\n      callvalue\n      dup1\n      iszero\n      tag_32\n      jumpi\n      0x00\n      dup1\n      revert\n    tag_32:\n      pop\n      tag_33\n      0x04\n      dup1\n      calldatasize\n      sub\n      dup2\n      add\n      swap1\n      tag_34\n      swap2\n      swap1\n      tag_16\n      jump\t// in\n    tag_34:\n      tag_35\n      jump\t// in\n    tag_33:\n      stop\n        /* \"contracts/moneychanger-project/MoneyChanger.sol\":741:1132  function exchange() external payable {... */\n    tag_8:\n      tag_36\n      tag_37\n      jump\t// in\n    tag_36:\n      stop\n        /* \"contracts/moneychanger-project/MoneyChanger.sol\":286:305  IERC20 public token */\n    tag_9:\n      callvalue\n      dup1\n      iszero\n      tag_38\n      jumpi\n      0x00\n      dup1\n      revert\n    tag_38:\n      pop\n      tag_39\n      tag_40\n      jump\t// in\n    tag_39:\n      mload(0x40)\n      tag_41\n      swap2\n      swap1\n      tag_42\n      jump\t// in\n    tag_41:\n      mload(0x40)\n      dup1\n      swap2\n      sub\n      swap1\n      return\n        /* \"contracts/moneychanger-project/MoneyChanger.sol\":1483:1678  function withdrawTokens(uint _amount) external onlyOwner {... */\n    tag_17:\n        /* \"contracts/moneychanger-project/MoneyChanger.sol\":519:524  owner */\n      0x00\n      dup1\n      sload\n      swap1\n      0x0100\n      exp\n      swap1\n      div\n      0xffffffffffffffffffffffffffffffffffffffff\n      and\n        /* \"contracts/moneychanger-project/MoneyChanger.sol\":505:524  msg.sender == owner */\n      0xffffffffffffffffffffffffffffffffffffffff\n      and\n        /* \"contracts/moneychanger-project/MoneyChanger.sol\":505:515  msg.sender */\n      caller\n        /* \"contracts/moneychanger-project/MoneyChanger.sol\":505:524  msg.sender == owner */\n      0xffffffffffffffffffffffffffffffffffffffff\n      and\n      eq\n        /* \"contracts/moneychanger-project/MoneyChanger.sol\":497:567  require(msg.sender == owner, \"Only the owner can call this function.\") */\n      tag_44\n      jumpi\n      mload(0x40)\n      0x08c379a000000000000000000000000000000000000000000000000000000000\n      dup2\n      mstore\n      0x04\n      add\n      tag_45\n      swap1\n      tag_46\n      jump\t// in\n    tag_45:\n      mload(0x40)\n      dup1\n      swap2\n      sub\n      swap1\n      revert\n    tag_44:\n        /* \"contracts/moneychanger-project/MoneyChanger.sol\":1592:1599  _amount */\n      dup1\n        /* \"contracts/moneychanger-project/MoneyChanger.sol\":1558:1563  token */\n      0x01\n      0x00\n      swap1\n      sload\n      swap1\n      0x0100\n      exp\n      swap1\n      div\n      0xffffffffffffffffffffffffffffffffffffffff\n      and\n        /* \"contracts/moneychanger-project/MoneyChanger.sol\":1558:1573  token.balanceOf */\n      0xffffffffffffffffffffffffffffffffffffffff\n      and\n      0x70a08231\n        /* \"contracts/moneychanger-project/MoneyChanger.sol\":1582:1586  this */\n      address\n        /* \"contracts/moneychanger-project/MoneyChanger.sol\":1558:1588  token.balanceOf(address(this)) */\n      mload(0x40)\n      dup3\n      0xffffffff\n      and\n      0xe0\n      shl\n      dup2\n      mstore\n      0x04\n      add\n      tag_48\n      swap2\n      swap1\n      tag_31\n      jump\t// in\n    tag_48:\n      0x20\n      mload(0x40)\n      dup1\n      dup4\n      sub\n      dup2\n      dup7\n      gas\n      staticcall\n      iszero\n      dup1\n      iszero\n      tag_50\n      jumpi\n      returndatasize\n      0x00\n      dup1\n      returndatacopy\n      revert(0x00, returndatasize)\n    tag_50:\n      pop\n      pop\n      pop\n      pop\n      mload(0x40)\n      returndatasize\n      not(0x1f)\n      0x1f\n      dup3\n      add\n      and\n      dup3\n      add\n      dup1\n      0x40\n      mstore\n      pop\n      dup2\n      add\n      swap1\n      tag_51\n      swap2\n      swap1\n      tag_52\n      jump\t// in\n    tag_51:\n        /* \"contracts/moneychanger-project/MoneyChanger.sol\":1558:1599  token.balanceOf(address(this)) >= _amount */\n      lt\n      iszero\n        /* \"contracts/moneychanger-project/MoneyChanger.sol\":1550:1631  require(token.balanceOf(address(this)) >= _amount, \"Insufficient token balance.\") */\n      tag_53\n      jumpi\n      mload(0x40)\n      0x08c379a000000000000000000000000000000000000000000000000000000000\n      dup2\n      mstore\n      0x04\n      add\n      tag_54\n      swap1\n      tag_55\n      jump\t// in\n    tag_54:\n      mload(0x40)\n      dup1\n      swap2\n      sub\n      swap1\n      revert\n    tag_53:\n        /* \"contracts/moneychanger-project/MoneyChanger.sol\":1641:1646  token */\n      0x01\n      0x00\n      swap1\n      sload\n      swap1\n      0x0100\n      exp\n      swap1\n      div\n      0xffffffffffffffffffffffffffffffffffffffff\n      and\n        /* \"contracts/moneychanger-project/MoneyChanger.sol\":1641:1655  token.transfer */\n      0xffffffffffffffffffffffffffffffffffffffff\n      and\n      0xa9059cbb\n        /* \"contracts/moneychanger-project/MoneyChanger.sol\":1656:1661  owner */\n      0x00\n      dup1\n      sload\n      swap1\n      0x0100\n      exp\n      swap1\n      div\n      0xffffffffffffffffffffffffffffffffffffffff\n      and\n        /* \"contracts/moneychanger-project/MoneyChanger.sol\":1663:1670  _amount */\n      dup4\n        /* \"contracts/moneychanger-project/MoneyChanger.sol\":1641:1671  token.transfer(owner, _amount) */\n      mload(0x40)\n      dup4\n      0xffffffff\n      and\n      0xe0\n      shl\n      dup2\n      mstore\n      0x04\n      add\n      tag_56\n      swap3\n      swap2\n      swap1\n      tag_57\n      jump\t// in\n    tag_56:\n      0x20\n      mload(0x40)\n      dup1\n      dup4\n      sub\n      dup2\n      0x00\n      dup8\n      gas\n      call\n      iszero\n      dup1\n      iszero\n      tag_59\n      jumpi\n      returndatasize\n      0x00\n      dup1\n      returndatacopy\n      revert(0x00, returndatasize)\n    tag_59:\n      pop\n      pop\n      pop\n      pop\n      mload(0x40)\n      returndatasize\n      not(0x1f)\n      0x1f\n      dup3\n      add\n      and\n      dup3\n      add\n      dup1\n      0x40\n      mstore\n      pop\n      dup2\n      add\n      swap1\n      tag_60\n      swap2\n      swap1\n      tag_61\n      jump\t// in\n    tag_60:\n      pop\n        /* \"contracts/moneychanger-project/MoneyChanger.sol\":1483:1678  function withdrawTokens(uint _amount) external onlyOwner {... */\n      pop\n      jump\t// out\n        /* \"contracts/moneychanger-project/MoneyChanger.sol\":311:335  uint public exchangeRate */\n    tag_20:\n      sload(0x02)\n      dup2\n      jump\t// out\n        /* \"contracts/moneychanger-project/MoneyChanger.sol\":1290:1477  function withdrawEther(uint _amount) external onlyOwner {... */\n    tag_26:\n        /* \"contracts/moneychanger-project/MoneyChanger.sol\":519:524  owner */\n      0x00\n      dup1\n      sload\n      swap1\n      0x0100\n      exp\n      swap1\n      div\n      0xffffffffffffffffffffffffffffffffffffffff\n      and\n        /* \"contracts/moneychanger-project/MoneyChanger.sol\":505:524  msg.sender == owner */\n      0xffffffffffffffffffffffffffffffffffffffff\n      and\n        /* \"contracts/moneychanger-project/MoneyChanger.sol\":505:515  msg.sender */\n      caller\n        /* \"contracts/moneychanger-project/MoneyChanger.sol\":505:524  msg.sender == owner */\n      0xffffffffffffffffffffffffffffffffffffffff\n      and\n      eq\n        /* \"contracts/moneychanger-project/MoneyChanger.sol\":497:567  require(msg.sender == owner, \"Only the owner can call this function.\") */\n      tag_63\n      jumpi\n      mload(0x40)\n      0x08c379a000000000000000000000000000000000000000000000000000000000\n      dup2\n      mstore\n      0x04\n      add\n      tag_64\n      swap1\n      tag_46\n      jump\t// in\n    tag_64:\n      mload(0x40)\n      dup1\n      swap2\n      sub\n      swap1\n      revert\n    tag_63:\n        /* \"contracts/moneychanger-project/MoneyChanger.sol\":1389:1396  _amount */\n      dup1\n        /* \"contracts/moneychanger-project/MoneyChanger.sol\":1364:1385  address(this).balance */\n      selfbalance\n        /* \"contracts/moneychanger-project/MoneyChanger.sol\":1364:1396  address(this).balance >= _amount */\n      lt\n      iszero\n        /* \"contracts/moneychanger-project/MoneyChanger.sol\":1356:1428  require(address(this).balance >= _amount, \"Insufficient Ether balance.\") */\n      tag_66\n      jumpi\n      mload(0x40)\n      0x08c379a000000000000000000000000000000000000000000000000000000000\n      dup2\n      mstore\n      0x04\n      add\n      tag_67\n      swap1\n      tag_68\n      jump\t// in\n    tag_67:\n      mload(0x40)\n      dup1\n      swap2\n      sub\n      swap1\n      revert\n    tag_66:\n        /* \"contracts/moneychanger-project/MoneyChanger.sol\":1446:1451  owner */\n      0x00\n      dup1\n      sload\n      swap1\n      0x0100\n      exp\n      swap1\n      div\n      0xffffffffffffffffffffffffffffffffffffffff\n      and\n        /* \"contracts/moneychanger-project/MoneyChanger.sol\":1438:1461  payable(owner).transfer */\n      0xffffffffffffffffffffffffffffffffffffffff\n      and\n        /* \"contracts/moneychanger-project/MoneyChanger.sol\":1438:1470  payable(owner).transfer(_amount) */\n      0x08fc\n        /* \"contracts/moneychanger-project/MoneyChanger.sol\":1462:1469  _amount */\n      dup3\n        /* \"contracts/moneychanger-project/MoneyChanger.sol\":1438:1470  payable(owner).transfer(_amount) */\n      swap1\n      dup2\n      iszero\n      mul\n      swap1\n      mload(0x40)\n      0x00\n      mload(0x40)\n      dup1\n      dup4\n      sub\n      dup2\n      dup6\n      dup9\n      dup9\n      call\n      swap4\n      pop\n      pop\n      pop\n      pop\n      iszero\n      dup1\n      iszero\n      tag_70\n      jumpi\n      returndatasize\n      0x00\n      dup1\n      returndatacopy\n      revert(0x00, returndatasize)\n    tag_70:\n      pop\n        /* \"contracts/moneychanger-project/MoneyChanger.sol\":1290:1477  function withdrawEther(uint _amount) external onlyOwner {... */\n      pop\n      jump\t// out\n        /* \"contracts/moneychanger-project/MoneyChanger.sol\":260:280  address public owner */\n    tag_29:\n      0x00\n      dup1\n      sload\n      swap1\n      0x0100\n      exp\n      swap1\n      div\n      0xffffffffffffffffffffffffffffffffffffffff\n      and\n      dup2\n      jump\t// out\n        /* \"contracts/moneychanger-project/MoneyChanger.sol\":1138:1284  function updateExchangeRate(uint _newRate) external onlyOwner {... */\n    tag_35:\n        /* \"contracts/moneychanger-project/MoneyChanger.sol\":519:524  owner */\n      0x00\n      dup1\n      sload\n      swap1\n      0x0100\n      exp\n      swap1\n      div\n      0xffffffffffffffffffffffffffffffffffffffff\n      and\n        /* \"contracts/moneychanger-project/MoneyChanger.sol\":505:524  msg.sender == owner */\n      0xffffffffffffffffffffffffffffffffffffffff\n      and\n        /* \"contracts/moneychanger-project/MoneyChanger.sol\":505:515  msg.sender */\n      caller\n        /* \"contracts/moneychanger-project/MoneyChanger.sol\":505:524  msg.sender == owner */\n      0xffffffffffffffffffffffffffffffffffffffff\n      and\n      eq\n        /* \"contracts/moneychanger-project/MoneyChanger.sol\":497:567  require(msg.sender == owner, \"Only the owner can call this function.\") */\n      tag_72\n      jumpi\n      mload(0x40)\n      0x08c379a000000000000000000000000000000000000000000000000000000000\n      dup2\n      mstore\n      0x04\n      add\n      tag_73\n      swap1\n      tag_46\n      jump\t// in\n    tag_73:\n      mload(0x40)\n      dup1\n      swap2\n      sub\n      swap1\n      revert\n    tag_72:\n        /* \"contracts/moneychanger-project/MoneyChanger.sol\":1225:1233  _newRate */\n      dup1\n        /* \"contracts/moneychanger-project/MoneyChanger.sol\":1210:1222  exchangeRate */\n      0x02\n        /* \"contracts/moneychanger-project/MoneyChanger.sol\":1210:1233  exchangeRate = _newRate */\n      dup2\n      swap1\n      sstore\n      pop\n        /* \"contracts/moneychanger-project/MoneyChanger.sol\":1248:1277  ExchangeRateUpdated(_newRate) */\n      0x388f446e9526fe5c9af20a5919b342370c8a7c0cb05245afe1e545658fa3cdba\n        /* \"contracts/moneychanger-project/MoneyChanger.sol\":1268:1276  _newRate */\n      dup2\n        /* \"contracts/moneychanger-project/MoneyChanger.sol\":1248:1277  ExchangeRateUpdated(_newRate) */\n      mload(0x40)\n      tag_75\n      swap2\n      swap1\n      tag_22\n      jump\t// in\n    tag_75:\n      mload(0x40)\n      dup1\n      swap2\n      sub\n      swap1\n      log1\n        /* \"contracts/moneychanger-project/MoneyChanger.sol\":1138:1284  function updateExchangeRate(uint _newRate) external onlyOwner {... */\n      pop\n      jump\t// out\n        /* \"contracts/moneychanger-project/MoneyChanger.sol\":741:1132  function exchange() external payable {... */\n    tag_37:\n        /* \"contracts/moneychanger-project/MoneyChanger.sol\":808:809  0 */\n      0x00\n        /* \"contracts/moneychanger-project/MoneyChanger.sol\":796:805  msg.value */\n      callvalue\n        /* \"contracts/moneychanger-project/MoneyChanger.sol\":796:809  msg.value > 0 */\n      gt\n        /* \"contracts/moneychanger-project/MoneyChanger.sol\":788:851  require(msg.value > 0, \"You must send some Ether to exchange.\") */\n      tag_77\n      jumpi\n      mload(0x40)\n      0x08c379a000000000000000000000000000000000000000000000000000000000\n      dup2\n      mstore\n      0x04\n      add\n      tag_78\n      swap1\n      tag_79\n      jump\t// in\n    tag_78:\n      mload(0x40)\n      dup1\n      swap2\n      sub\n      swap1\n      revert\n    tag_77:\n        /* \"contracts/moneychanger-project/MoneyChanger.sol\":862:878  uint tokenAmount */\n      0x00\n        /* \"contracts/moneychanger-project/MoneyChanger.sol\":893:905  exchangeRate */\n      sload(0x02)\n        /* \"contracts/moneychanger-project/MoneyChanger.sol\":881:890  msg.value */\n      callvalue\n        /* \"contracts/moneychanger-project/MoneyChanger.sol\":881:905  msg.value * exchangeRate */\n      tag_80\n      swap2\n      swap1\n      tag_81\n      jump\t// in\n    tag_80:\n        /* \"contracts/moneychanger-project/MoneyChanger.sol\":862:905  uint tokenAmount = msg.value * exchangeRate */\n      swap1\n      pop\n        /* \"contracts/moneychanger-project/MoneyChanger.sol\":957:968  tokenAmount */\n      dup1\n        /* \"contracts/moneychanger-project/MoneyChanger.sol\":923:928  token */\n      0x01\n      0x00\n      swap1\n      sload\n      swap1\n      0x0100\n      exp\n      swap1\n      div\n      0xffffffffffffffffffffffffffffffffffffffff\n      and\n        /* \"contracts/moneychanger-project/MoneyChanger.sol\":923:938  token.balanceOf */\n      0xffffffffffffffffffffffffffffffffffffffff\n      and\n      0x70a08231\n        /* \"contracts/moneychanger-project/MoneyChanger.sol\":947:951  this */\n      address\n        /* \"contracts/moneychanger-project/MoneyChanger.sol\":923:953  token.balanceOf(address(this)) */\n      mload(0x40)\n      dup3\n      0xffffffff\n      and\n      0xe0\n      shl\n      dup2\n      mstore\n      0x04\n      add\n      tag_82\n      swap2\n      swap1\n      tag_31\n      jump\t// in\n    tag_82:\n      0x20\n      mload(0x40)\n      dup1\n      dup4\n      sub\n      dup2\n      dup7\n      gas\n      staticcall\n      iszero\n      dup1\n      iszero\n      tag_84\n      jumpi\n      returndatasize\n      0x00\n      dup1\n      returndatacopy\n      revert(0x00, returndatasize)\n    tag_84:\n      pop\n      pop\n      pop\n      pop\n      mload(0x40)\n      returndatasize\n      not(0x1f)\n      0x1f\n      dup3\n      add\n      and\n      dup3\n      add\n      dup1\n      0x40\n      mstore\n      pop\n      dup2\n      add\n      swap1\n      tag_85\n      swap2\n      swap1\n      tag_52\n      jump\t// in\n    tag_85:\n        /* \"contracts/moneychanger-project/MoneyChanger.sol\":923:968  token.balanceOf(address(this)) >= tokenAmount */\n      lt\n      iszero\n        /* \"contracts/moneychanger-project/MoneyChanger.sol\":915:1014  require(token.balanceOf(address(this)) >= tokenAmount, \"Not enough tokens available for exchange.\") */\n      tag_86\n      jumpi\n      mload(0x40)\n      0x08c379a000000000000000000000000000000000000000000000000000000000\n      dup2\n      mstore\n      0x04\n      add\n      tag_87\n      swap1\n      tag_88\n      jump\t// in\n    tag_87:\n      mload(0x40)\n      dup1\n      swap2\n      sub\n      swap1\n      revert\n    tag_86:\n        /* \"contracts/moneychanger-project/MoneyChanger.sol\":1025:1030  token */\n      0x01\n      0x00\n      swap1\n      sload\n      swap1\n      0x0100\n      exp\n      swap1\n      div\n      0xffffffffffffffffffffffffffffffffffffffff\n      and\n        /* \"contracts/moneychanger-project/MoneyChanger.sol\":1025:1039  token.transfer */\n      0xffffffffffffffffffffffffffffffffffffffff\n      and\n      0xa9059cbb\n        /* \"contracts/moneychanger-project/MoneyChanger.sol\":1040:1050  msg.sender */\n      caller\n        /* \"contracts/moneychanger-project/MoneyChanger.sol\":1052:1063  tokenAmount */\n      dup4\n        /* \"contracts/moneychanger-project/MoneyChanger.sol\":1025:1064  token.transfer(msg.sender, tokenAmount) */\n      mload(0x40)\n      dup4\n      0xffffffff\n      and\n      0xe0\n      shl\n      dup2\n      mstore\n      0x04\n      add\n      tag_89\n      swap3\n      swap2\n      swap1\n      tag_57\n      jump\t// in\n    tag_89:\n      0x20\n      mload(0x40)\n      dup1\n      dup4\n      sub\n      dup2\n      0x00\n      dup8\n      gas\n      call\n      iszero\n      dup1\n      iszero\n      tag_91\n      jumpi\n      returndatasize\n      0x00\n      dup1\n      returndatacopy\n      revert(0x00, returndatasize)\n    tag_91:\n      pop\n      pop\n      pop\n      pop\n      mload(0x40)\n      returndatasize\n      not(0x1f)\n      0x1f\n      dup3\n      add\n      and\n      dup3\n      add\n      dup1\n      0x40\n      mstore\n      pop\n      dup2\n      add\n      swap1\n      tag_92\n      swap2\n      swap1\n      tag_61\n      jump\t// in\n    tag_92:\n      pop\n        /* \"contracts/moneychanger-project/MoneyChanger.sol\":1090:1100  msg.sender */\n      caller\n        /* \"contracts/moneychanger-project/MoneyChanger.sol\":1080:1125  Exchanged(msg.sender, msg.value, tokenAmount) */\n      0xffffffffffffffffffffffffffffffffffffffff\n      and\n      0x98e5a745dfe4f0a8952c2d09eeb25746ce9768004ab459c980d7ad1b5152cbd8\n        /* \"contracts/moneychanger-project/MoneyChanger.sol\":1102:1111  msg.value */\n      callvalue\n        /* \"contracts/moneychanger-project/MoneyChanger.sol\":1113:1124  tokenAmount */\n      dup4\n        /* \"contracts/moneychanger-project/MoneyChanger.sol\":1080:1125  Exchanged(msg.sender, msg.value, tokenAmount) */\n      mload(0x40)\n      tag_93\n      swap3\n      swap2\n      swap1\n      tag_94\n      jump\t// in\n    tag_93:\n      mload(0x40)\n      dup1\n      swap2\n      sub\n      swap1\n      log2\n        /* \"contracts/moneychanger-project/MoneyChanger.sol\":778:1132  {... */\n      pop\n        /* \"contracts/moneychanger-project/MoneyChanger.sol\":741:1132  function exchange() external payable {... */\n      jump\t// out\n        /* \"contracts/moneychanger-project/MoneyChanger.sol\":286:305  IERC20 public token */\n    tag_40:\n      0x01\n      0x00\n      swap1\n      sload\n      swap1\n      0x0100\n      exp\n      swap1\n      div\n      0xffffffffffffffffffffffffffffffffffffffff\n      and\n      dup2\n      jump\t// out\n        /* \"#utility.yul\":88:205   */\n    tag_96:\n        /* \"#utility.yul\":197:198   */\n      0x00\n        /* \"#utility.yul\":194:195   */\n      dup1\n        /* \"#utility.yul\":187:199   */\n      revert\n        /* \"#utility.yul\":334:411   */\n    tag_98:\n        /* \"#utility.yul\":371:378   */\n      0x00\n        /* \"#utility.yul\":400:405   */\n      dup2\n        /* \"#utility.yul\":389:405   */\n      swap1\n      pop\n        /* \"#utility.yul\":334:411   */\n      swap2\n      swap1\n      pop\n      jump\t// out\n        /* \"#utility.yul\":417:539   */\n    tag_99:\n        /* \"#utility.yul\":490:514   */\n      tag_132\n        /* \"#utility.yul\":508:513   */\n      dup2\n        /* \"#utility.yul\":490:514   */\n      tag_98\n      jump\t// in\n    tag_132:\n        /* \"#utility.yul\":483:488   */\n      dup2\n        /* \"#utility.yul\":480:515   */\n      eq\n        /* \"#utility.yul\":470:533   */\n      tag_133\n      jumpi\n        /* \"#utility.yul\":529:530   */\n      0x00\n        /* \"#utility.yul\":526:527   */\n      dup1\n        /* \"#utility.yul\":519:531   */\n      revert\n        /* \"#utility.yul\":470:533   */\n    tag_133:\n        /* \"#utility.yul\":417:539   */\n      pop\n      jump\t// out\n        /* \"#utility.yul\":545:684   */\n    tag_100:\n        /* \"#utility.yul\":591:596   */\n      0x00\n        /* \"#utility.yul\":629:635   */\n      dup2\n        /* \"#utility.yul\":616:636   */\n      calldataload\n        /* \"#utility.yul\":607:636   */\n      swap1\n      pop\n        /* \"#utility.yul\":645:678   */\n      tag_135\n        /* \"#utility.yul\":672:677   */\n      dup2\n        /* \"#utility.yul\":645:678   */\n      tag_99\n      jump\t// in\n    tag_135:\n        /* \"#utility.yul\":545:684   */\n      swap3\n      swap2\n      pop\n      pop\n      jump\t// out\n        /* \"#utility.yul\":690:1019   */\n    tag_16:\n        /* \"#utility.yul\":749:755   */\n      0x00\n        /* \"#utility.yul\":798:800   */\n      0x20\n        /* \"#utility.yul\":786:795   */\n      dup3\n        /* \"#utility.yul\":777:784   */\n      dup5\n        /* \"#utility.yul\":773:796   */\n      sub\n        /* \"#utility.yul\":769:801   */\n      slt\n        /* \"#utility.yul\":766:885   */\n      iszero\n      tag_137\n      jumpi\n        /* \"#utility.yul\":804:883   */\n      tag_138\n      tag_96\n      jump\t// in\n    tag_138:\n        /* \"#utility.yul\":766:885   */\n    tag_137:\n        /* \"#utility.yul\":924:925   */\n      0x00\n        /* \"#utility.yul\":949:1002   */\n      tag_139\n        /* \"#utility.yul\":994:1001   */\n      dup5\n        /* \"#utility.yul\":985:991   */\n      dup3\n        /* \"#utility.yul\":974:983   */\n      dup6\n        /* \"#utility.yul\":970:992   */\n      add\n        /* \"#utility.yul\":949:1002   */\n      tag_100\n      jump\t// in\n    tag_139:\n        /* \"#utility.yul\":939:1002   */\n      swap2\n      pop\n        /* \"#utility.yul\":895:1012   */\n      pop\n        /* \"#utility.yul\":690:1019   */\n      swap3\n      swap2\n      pop\n      pop\n      jump\t// out\n        /* \"#utility.yul\":1025:1143   */\n    tag_101:\n        /* \"#utility.yul\":1112:1136   */\n      tag_141\n        /* \"#utility.yul\":1130:1135   */\n      dup2\n        /* \"#utility.yul\":1112:1136   */\n      tag_98\n      jump\t// in\n    tag_141:\n        /* \"#utility.yul\":1107:1110   */\n      dup3\n        /* \"#utility.yul\":1100:1137   */\n      mstore\n        /* \"#utility.yul\":1025:1143   */\n      pop\n      pop\n      jump\t// out\n        /* \"#utility.yul\":1149:1371   */\n    tag_22:\n        /* \"#utility.yul\":1242:1246   */\n      0x00\n        /* \"#utility.yul\":1280:1282   */\n      0x20\n        /* \"#utility.yul\":1269:1278   */\n      dup3\n        /* \"#utility.yul\":1265:1283   */\n      add\n        /* \"#utility.yul\":1257:1283   */\n      swap1\n      pop\n        /* \"#utility.yul\":1293:1364   */\n      tag_143\n        /* \"#utility.yul\":1361:1362   */\n      0x00\n        /* \"#utility.yul\":1350:1359   */\n      dup4\n        /* \"#utility.yul\":1346:1363   */\n      add\n        /* \"#utility.yul\":1337:1343   */\n      dup5\n        /* \"#utility.yul\":1293:1364   */\n      tag_101\n      jump\t// in\n    tag_143:\n        /* \"#utility.yul\":1149:1371   */\n      swap3\n      swap2\n      pop\n      pop\n      jump\t// out\n        /* \"#utility.yul\":1377:1503   */\n    tag_102:\n        /* \"#utility.yul\":1414:1421   */\n      0x00\n        /* \"#utility.yul\":1454:1496   */\n      0xffffffffffffffffffffffffffffffffffffffff\n        /* \"#utility.yul\":1447:1452   */\n      dup3\n        /* \"#utility.yul\":1443:1497   */\n      and\n        /* \"#utility.yul\":1432:1497   */\n      swap1\n      pop\n        /* \"#utility.yul\":1377:1503   */\n      swap2\n      swap1\n      pop\n      jump\t// out\n        /* \"#utility.yul\":1509:1605   */\n    tag_103:\n        /* \"#utility.yul\":1546:1553   */\n      0x00\n        /* \"#utility.yul\":1575:1599   */\n      tag_146\n        /* \"#utility.yul\":1593:1598   */\n      dup3\n        /* \"#utility.yul\":1575:1599   */\n      tag_102\n      jump\t// in\n    tag_146:\n        /* \"#utility.yul\":1564:1599   */\n      swap1\n      pop\n        /* \"#utility.yul\":1509:1605   */\n      swap2\n      swap1\n      pop\n      jump\t// out\n        /* \"#utility.yul\":1611:1729   */\n    tag_104:\n        /* \"#utility.yul\":1698:1722   */\n      tag_148\n        /* \"#utility.yul\":1716:1721   */\n      dup2\n        /* \"#utility.yul\":1698:1722   */\n      tag_103\n      jump\t// in\n    tag_148:\n        /* \"#utility.yul\":1693:1696   */\n      dup3\n        /* \"#utility.yul\":1686:1723   */\n      mstore\n        /* \"#utility.yul\":1611:1729   */\n      pop\n      pop\n      jump\t// out\n        /* \"#utility.yul\":1735:1957   */\n    tag_31:\n        /* \"#utility.yul\":1828:1832   */\n      0x00\n        /* \"#utility.yul\":1866:1868   */\n      0x20\n        /* \"#utility.yul\":1855:1864   */\n      dup3\n        /* \"#utility.yul\":1851:1869   */\n      add\n        /* \"#utility.yul\":1843:1869   */\n      swap1\n      pop\n        /* \"#utility.yul\":1879:1950   */\n      tag_150\n        /* \"#utility.yul\":1947:1948   */\n      0x00\n        /* \"#utility.yul\":1936:1945   */\n      dup4\n        /* \"#utility.yul\":1932:1949   */\n      add\n        /* \"#utility.yul\":1923:1929   */\n      dup5\n        /* \"#utility.yul\":1879:1950   */\n      tag_104\n      jump\t// in\n    tag_150:\n        /* \"#utility.yul\":1735:1957   */\n      swap3\n      swap2\n      pop\n      pop\n      jump\t// out\n        /* \"#utility.yul\":1963:2023   */\n    tag_105:\n        /* \"#utility.yul\":1991:1994   */\n      0x00\n        /* \"#utility.yul\":2012:2017   */\n      dup2\n        /* \"#utility.yul\":2005:2017   */\n      swap1\n      pop\n        /* \"#utility.yul\":1963:2023   */\n      swap2\n      swap1\n      pop\n      jump\t// out\n        /* \"#utility.yul\":2029:2171   */\n    tag_106:\n        /* \"#utility.yul\":2079:2088   */\n      0x00\n        /* \"#utility.yul\":2112:2165   */\n      tag_153\n        /* \"#utility.yul\":2130:2164   */\n      tag_154\n        /* \"#utility.yul\":2139:2163   */\n      tag_155\n        /* \"#utility.yul\":2157:2162   */\n      dup5\n        /* \"#utility.yul\":2139:2163   */\n      tag_102\n      jump\t// in\n    tag_155:\n        /* \"#utility.yul\":2130:2164   */\n      tag_105\n      jump\t// in\n    tag_154:\n        /* \"#utility.yul\":2112:2165   */\n      tag_102\n      jump\t// in\n    tag_153:\n        /* \"#utility.yul\":2099:2165   */\n      swap1\n      pop\n        /* \"#utility.yul\":2029:2171   */\n      swap2\n      swap1\n      pop\n      jump\t// out\n        /* \"#utility.yul\":2177:2303   */\n    tag_107:\n        /* \"#utility.yul\":2227:2236   */\n      0x00\n        /* \"#utility.yul\":2260:2297   */\n      tag_157\n        /* \"#utility.yul\":2291:2296   */\n      dup3\n        /* \"#utility.yul\":2260:2297   */\n      tag_106\n      jump\t// in\n    tag_157:\n        /* \"#utility.yul\":2247:2297   */\n      swap1\n      pop\n        /* \"#utility.yul\":2177:2303   */\n      swap2\n      swap1\n      pop\n      jump\t// out\n        /* \"#utility.yul\":2309:2448   */\n    tag_108:\n        /* \"#utility.yul\":2372:2381   */\n      0x00\n        /* \"#utility.yul\":2405:2442   */\n      tag_159\n        /* \"#utility.yul\":2436:2441   */\n      dup3\n        /* \"#utility.yul\":2405:2442   */\n      tag_107\n      jump\t// in\n    tag_159:\n        /* \"#utility.yul\":2392:2442   */\n      swap1\n      pop\n        /* \"#utility.yul\":2309:2448   */\n      swap2\n      swap1\n      pop\n      jump\t// out\n        /* \"#utility.yul\":2454:2611   */\n    tag_109:\n        /* \"#utility.yul\":2554:2604   */\n      tag_161\n        /* \"#utility.yul\":2598:2603   */\n      dup2\n        /* \"#utility.yul\":2554:2604   */\n      tag_108\n      jump\t// in\n    tag_161:\n        /* \"#utility.yul\":2549:2552   */\n      dup3\n        /* \"#utility.yul\":2542:2605   */\n      mstore\n        /* \"#utility.yul\":2454:2611   */\n      pop\n      pop\n      jump\t// out\n        /* \"#utility.yul\":2617:2865   */\n    tag_42:\n        /* \"#utility.yul\":2723:2727   */\n      0x00\n        /* \"#utility.yul\":2761:2763   */\n      0x20\n        /* \"#utility.yul\":2750:2759   */\n      dup3\n        /* \"#utility.yul\":2746:2764   */\n      add\n        /* \"#utility.yul\":2738:2764   */\n      swap1\n      pop\n        /* \"#utility.yul\":2774:2858   */\n      tag_163\n        /* \"#utility.yul\":2855:2856   */\n      0x00\n        /* \"#utility.yul\":2844:2853   */\n      dup4\n        /* \"#utility.yul\":2840:2857   */\n      add\n        /* \"#utility.yul\":2831:2837   */\n      dup5\n        /* \"#utility.yul\":2774:2858   */\n      tag_109\n      jump\t// in\n    tag_163:\n        /* \"#utility.yul\":2617:2865   */\n      swap3\n      swap2\n      pop\n      pop\n      jump\t// out\n        /* \"#utility.yul\":2871:3040   */\n    tag_110:\n        /* \"#utility.yul\":2955:2966   */\n      0x00\n        /* \"#utility.yul\":2989:2995   */\n      dup3\n        /* \"#utility.yul\":2984:2987   */\n      dup3\n        /* \"#utility.yul\":2977:2996   */\n      mstore\n        /* \"#utility.yul\":3029:3033   */\n      0x20\n        /* \"#utility.yul\":3024:3027   */\n      dup3\n        /* \"#utility.yul\":3020:3034   */\n      add\n        /* \"#utility.yul\":3005:3034   */\n      swap1\n      pop\n        /* \"#utility.yul\":2871:3040   */\n      swap3\n      swap2\n      pop\n      pop\n      jump\t// out\n        /* \"#utility.yul\":3046:3271   */\n    tag_111:\n        /* \"#utility.yul\":3186:3220   */\n      0x4f6e6c7920746865206f776e65722063616e2063616c6c20746869732066756e\n        /* \"#utility.yul\":3182:3183   */\n      0x00\n        /* \"#utility.yul\":3174:3180   */\n      dup3\n        /* \"#utility.yul\":3170:3184   */\n      add\n        /* \"#utility.yul\":3163:3221   */\n      mstore\n        /* \"#utility.yul\":3255:3263   */\n      0x6374696f6e2e0000000000000000000000000000000000000000000000000000\n        /* \"#utility.yul\":3250:3252   */\n      0x20\n        /* \"#utility.yul\":3242:3248   */\n      dup3\n        /* \"#utility.yul\":3238:3253   */\n      add\n        /* \"#utility.yul\":3231:3264   */\n      mstore\n        /* \"#utility.yul\":3046:3271   */\n      pop\n      jump\t// out\n        /* \"#utility.yul\":3277:3643   */\n    tag_112:\n        /* \"#utility.yul\":3419:3422   */\n      0x00\n        /* \"#utility.yul\":3440:3507   */\n      tag_167\n        /* \"#utility.yul\":3504:3506   */\n      0x26\n        /* \"#utility.yul\":3499:3502   */\n      dup4\n        /* \"#utility.yul\":3440:3507   */\n      tag_110\n      jump\t// in\n    tag_167:\n        /* \"#utility.yul\":3433:3507   */\n      swap2\n      pop\n        /* \"#utility.yul\":3516:3609   */\n      tag_168\n        /* \"#utility.yul\":3605:3608   */\n      dup3\n        /* \"#utility.yul\":3516:3609   */\n      tag_111\n      jump\t// in\n    tag_168:\n        /* \"#utility.yul\":3634:3636   */\n      0x40\n        /* \"#utility.yul\":3629:3632   */\n      dup3\n        /* \"#utility.yul\":3625:3637   */\n      add\n        /* \"#utility.yul\":3618:3637   */\n      swap1\n      pop\n        /* \"#utility.yul\":3277:3643   */\n      swap2\n      swap1\n      pop\n      jump\t// out\n        /* \"#utility.yul\":3649:4068   */\n    tag_46:\n        /* \"#utility.yul\":3815:3819   */\n      0x00\n        /* \"#utility.yul\":3853:3855   */\n      0x20\n        /* \"#utility.yul\":3842:3851   */\n      dup3\n        /* \"#utility.yul\":3838:3856   */\n      add\n        /* \"#utility.yul\":3830:3856   */\n      swap1\n      pop\n        /* \"#utility.yul\":3902:3911   */\n      dup2\n        /* \"#utility.yul\":3896:3900   */\n      dup2\n        /* \"#utility.yul\":3892:3912   */\n      sub\n        /* \"#utility.yul\":3888:3889   */\n      0x00\n        /* \"#utility.yul\":3877:3886   */\n      dup4\n        /* \"#utility.yul\":3873:3890   */\n      add\n        /* \"#utility.yul\":3866:3913   */\n      mstore\n        /* \"#utility.yul\":3930:4061   */\n      tag_170\n        /* \"#utility.yul\":4056:4060   */\n      dup2\n        /* \"#utility.yul\":3930:4061   */\n      tag_112\n      jump\t// in\n    tag_170:\n        /* \"#utility.yul\":3922:4061   */\n      swap1\n      pop\n        /* \"#utility.yul\":3649:4068   */\n      swap2\n      swap1\n      pop\n      jump\t// out\n        /* \"#utility.yul\":4074:4217   */\n    tag_113:\n        /* \"#utility.yul\":4131:4136   */\n      0x00\n        /* \"#utility.yul\":4162:4168   */\n      dup2\n        /* \"#utility.yul\":4156:4169   */\n      mload\n        /* \"#utility.yul\":4147:4169   */\n      swap1\n      pop\n        /* \"#utility.yul\":4178:4211   */\n      tag_172\n        /* \"#utility.yul\":4205:4210   */\n      dup2\n        /* \"#utility.yul\":4178:4211   */\n      tag_99\n      jump\t// in\n    tag_172:\n        /* \"#utility.yul\":4074:4217   */\n      swap3\n      swap2\n      pop\n      pop\n      jump\t// out\n        /* \"#utility.yul\":4223:4574   */\n    tag_52:\n        /* \"#utility.yul\":4293:4299   */\n      0x00\n        /* \"#utility.yul\":4342:4344   */\n      0x20\n        /* \"#utility.yul\":4330:4339   */\n      dup3\n        /* \"#utility.yul\":4321:4328   */\n      dup5\n        /* \"#utility.yul\":4317:4340   */\n      sub\n        /* \"#utility.yul\":4313:4345   */\n      slt\n        /* \"#utility.yul\":4310:4429   */\n      iszero\n      tag_174\n      jumpi\n        /* \"#utility.yul\":4348:4427   */\n      tag_175\n      tag_96\n      jump\t// in\n    tag_175:\n        /* \"#utility.yul\":4310:4429   */\n    tag_174:\n        /* \"#utility.yul\":4468:4469   */\n      0x00\n        /* \"#utility.yul\":4493:4557   */\n      tag_176\n        /* \"#utility.yul\":4549:4556   */\n      dup5\n        /* \"#utility.yul\":4540:4546   */\n      dup3\n        /* \"#utility.yul\":4529:4538   */\n      dup6\n        /* \"#utility.yul\":4525:4547   */\n      add\n        /* \"#utility.yul\":4493:4557   */\n      tag_113\n      jump\t// in\n    tag_176:\n        /* \"#utility.yul\":4483:4557   */\n      swap2\n      pop\n        /* \"#utility.yul\":4439:4567   */\n      pop\n        /* \"#utility.yul\":4223:4574   */\n      swap3\n      swap2\n      pop\n      pop\n      jump\t// out\n        /* \"#utility.yul\":4580:4757   */\n    tag_114:\n        /* \"#utility.yul\":4720:4749   */\n      0x496e73756666696369656e7420746f6b656e2062616c616e63652e0000000000\n        /* \"#utility.yul\":4716:4717   */\n      0x00\n        /* \"#utility.yul\":4708:4714   */\n      dup3\n        /* \"#utility.yul\":4704:4718   */\n      add\n        /* \"#utility.yul\":4697:4750   */\n      mstore\n        /* \"#utility.yul\":4580:4757   */\n      pop\n      jump\t// out\n        /* \"#utility.yul\":4763:5129   */\n    tag_115:\n        /* \"#utility.yul\":4905:4908   */\n      0x00\n        /* \"#utility.yul\":4926:4993   */\n      tag_179\n        /* \"#utility.yul\":4990:4992   */\n      0x1b\n        /* \"#utility.yul\":4985:4988   */\n      dup4\n        /* \"#utility.yul\":4926:4993   */\n      tag_110\n      jump\t// in\n    tag_179:\n        /* \"#utility.yul\":4919:4993   */\n      swap2\n      pop\n        /* \"#utility.yul\":5002:5095   */\n      tag_180\n        /* \"#utility.yul\":5091:5094   */\n      dup3\n        /* \"#utility.yul\":5002:5095   */\n      tag_114\n      jump\t// in\n    tag_180:\n        /* \"#utility.yul\":5120:5122   */\n      0x20\n        /* \"#utility.yul\":5115:5118   */\n      dup3\n        /* \"#utility.yul\":5111:5123   */\n      add\n        /* \"#utility.yul\":5104:5123   */\n      swap1\n      pop\n        /* \"#utility.yul\":4763:5129   */\n      swap2\n      swap1\n      pop\n      jump\t// out\n        /* \"#utility.yul\":5135:5554   */\n    tag_55:\n        /* \"#utility.yul\":5301:5305   */\n      0x00\n        /* \"#utility.yul\":5339:5341   */\n      0x20\n        /* \"#utility.yul\":5328:5337   */\n      dup3\n        /* \"#utility.yul\":5324:5342   */\n      add\n        /* \"#utility.yul\":5316:5342   */\n      swap1\n      pop\n        /* \"#utility.yul\":5388:5397   */\n      dup2\n        /* \"#utility.yul\":5382:5386   */\n      dup2\n        /* \"#utility.yul\":5378:5398   */\n      sub\n        /* \"#utility.yul\":5374:5375   */\n      0x00\n        /* \"#utility.yul\":5363:5372   */\n      dup4\n        /* \"#utility.yul\":5359:5376   */\n      add\n        /* \"#utility.yul\":5352:5399   */\n      mstore\n        /* \"#utility.yul\":5416:5547   */\n      tag_182\n        /* \"#utility.yul\":5542:5546   */\n      dup2\n        /* \"#utility.yul\":5416:5547   */\n      tag_115\n      jump\t// in\n    tag_182:\n        /* \"#utility.yul\":5408:5547   */\n      swap1\n      pop\n        /* \"#utility.yul\":5135:5554   */\n      swap2\n      swap1\n      pop\n      jump\t// out\n        /* \"#utility.yul\":5560:5892   */\n    tag_57:\n        /* \"#utility.yul\":5681:5685   */\n      0x00\n        /* \"#utility.yul\":5719:5721   */\n      0x40\n        /* \"#utility.yul\":5708:5717   */\n      dup3\n        /* \"#utility.yul\":5704:5722   */\n      add\n        /* \"#utility.yul\":5696:5722   */\n      swap1\n      pop\n        /* \"#utility.yul\":5732:5803   */\n      tag_184\n        /* \"#utility.yul\":5800:5801   */\n      0x00\n        /* \"#utility.yul\":5789:5798   */\n      dup4\n        /* \"#utility.yul\":5785:5802   */\n      add\n        /* \"#utility.yul\":5776:5782   */\n      dup6\n        /* \"#utility.yul\":5732:5803   */\n      tag_104\n      jump\t// in\n    tag_184:\n        /* \"#utility.yul\":5813:5885   */\n      tag_185\n        /* \"#utility.yul\":5881:5883   */\n      0x20\n        /* \"#utility.yul\":5870:5879   */\n      dup4\n        /* \"#utility.yul\":5866:5884   */\n      add\n        /* \"#utility.yul\":5857:5863   */\n      dup5\n        /* \"#utility.yul\":5813:5885   */\n      tag_101\n      jump\t// in\n    tag_185:\n        /* \"#utility.yul\":5560:5892   */\n      swap4\n      swap3\n      pop\n      pop\n      pop\n      jump\t// out\n        /* \"#utility.yul\":5898:5988   */\n    tag_116:\n        /* \"#utility.yul\":5932:5939   */\n      0x00\n        /* \"#utility.yul\":5975:5980   */\n      dup2\n        /* \"#utility.yul\":5968:5981   */\n      iszero\n        /* \"#utility.yul\":5961:5982   */\n      iszero\n        /* \"#utility.yul\":5950:5982   */\n      swap1\n      pop\n        /* \"#utility.yul\":5898:5988   */\n      swap2\n      swap1\n      pop\n      jump\t// out\n        /* \"#utility.yul\":5994:6110   */\n    tag_117:\n        /* \"#utility.yul\":6064:6085   */\n      tag_188\n        /* \"#utility.yul\":6079:6084   */\n      dup2\n        /* \"#utility.yul\":6064:6085   */\n      tag_116\n      jump\t// in\n    tag_188:\n        /* \"#utility.yul\":6057:6062   */\n      dup2\n        /* \"#utility.yul\":6054:6086   */\n      eq\n        /* \"#utility.yul\":6044:6104   */\n      tag_189\n      jumpi\n        /* \"#utility.yul\":6100:6101   */\n      0x00\n        /* \"#utility.yul\":6097:6098   */\n      dup1\n        /* \"#utility.yul\":6090:6102   */\n      revert\n        /* \"#utility.yul\":6044:6104   */\n    tag_189:\n        /* \"#utility.yul\":5994:6110   */\n      pop\n      jump\t// out\n        /* \"#utility.yul\":6116:6253   */\n    tag_118:\n        /* \"#utility.yul\":6170:6175   */\n      0x00\n        /* \"#utility.yul\":6201:6207   */\n      dup2\n        /* \"#utility.yul\":6195:6208   */\n      mload\n        /* \"#utility.yul\":6186:6208   */\n      swap1\n      pop\n        /* \"#utility.yul\":6217:6247   */\n      tag_191\n        /* \"#utility.yul\":6241:6246   */\n      dup2\n        /* \"#utility.yul\":6217:6247   */\n      tag_117\n      jump\t// in\n    tag_191:\n        /* \"#utility.yul\":6116:6253   */\n      swap3\n      swap2\n      pop\n      pop\n      jump\t// out\n        /* \"#utility.yul\":6259:6604   */\n    tag_61:\n        /* \"#utility.yul\":6326:6332   */\n      0x00\n        /* \"#utility.yul\":6375:6377   */\n      0x20\n        /* \"#utility.yul\":6363:6372   */\n      dup3\n        /* \"#utility.yul\":6354:6361   */\n      dup5\n        /* \"#utility.yul\":6350:6373   */\n      sub\n        /* \"#utility.yul\":6346:6378   */\n      slt\n        /* \"#utility.yul\":6343:6462   */\n      iszero\n      tag_193\n      jumpi\n        /* \"#utility.yul\":6381:6460   */\n      tag_194\n      tag_96\n      jump\t// in\n    tag_194:\n        /* \"#utility.yul\":6343:6462   */\n    tag_193:\n        /* \"#utility.yul\":6501:6502   */\n      0x00\n        /* \"#utility.yul\":6526:6587   */\n      tag_195\n        /* \"#utility.yul\":6579:6586   */\n      dup5\n        /* \"#utility.yul\":6570:6576   */\n      dup3\n        /* \"#utility.yul\":6559:6568   */\n      dup6\n        /* \"#utility.yul\":6555:6577   */\n      add\n        /* \"#utility.yul\":6526:6587   */\n      tag_118\n      jump\t// in\n    tag_195:\n        /* \"#utility.yul\":6516:6587   */\n      swap2\n      pop\n        /* \"#utility.yul\":6472:6597   */\n      pop\n        /* \"#utility.yul\":6259:6604   */\n      swap3\n      swap2\n      pop\n      pop\n      jump\t// out\n        /* \"#utility.yul\":6610:6787   */\n    tag_119:\n        /* \"#utility.yul\":6750:6779   */\n      0x496e73756666696369656e742045746865722062616c616e63652e0000000000\n        /* \"#utility.yul\":6746:6747   */\n      0x00\n        /* \"#utility.yul\":6738:6744   */\n      dup3\n        /* \"#utility.yul\":6734:6748   */\n      add\n        /* \"#utility.yul\":6727:6780   */\n      mstore\n        /* \"#utility.yul\":6610:6787   */\n      pop\n      jump\t// out\n        /* \"#utility.yul\":6793:7159   */\n    tag_120:\n        /* \"#utility.yul\":6935:6938   */\n      0x00\n        /* \"#utility.yul\":6956:7023   */\n      tag_198\n        /* \"#utility.yul\":7020:7022   */\n      0x1b\n        /* \"#utility.yul\":7015:7018   */\n      dup4\n        /* \"#utility.yul\":6956:7023   */\n      tag_110\n      jump\t// in\n    tag_198:\n        /* \"#utility.yul\":6949:7023   */\n      swap2\n      pop\n        /* \"#utility.yul\":7032:7125   */\n      tag_199\n        /* \"#utility.yul\":7121:7124   */\n      dup3\n        /* \"#utility.yul\":7032:7125   */\n      tag_119\n      jump\t// in\n    tag_199:\n        /* \"#utility.yul\":7150:7152   */\n      0x20\n        /* \"#utility.yul\":7145:7148   */\n      dup3\n        /* \"#utility.yul\":7141:7153   */\n      add\n        /* \"#utility.yul\":7134:7153   */\n      swap1\n      pop\n        /* \"#utility.yul\":6793:7159   */\n      swap2\n      swap1\n      pop\n      jump\t// out\n        /* \"#utility.yul\":7165:7584   */\n    tag_68:\n        /* \"#utility.yul\":7331:7335   */\n      0x00\n        /* \"#utility.yul\":7369:7371   */\n      0x20\n        /* \"#utility.yul\":7358:7367   */\n      dup3\n        /* \"#utility.yul\":7354:7372   */\n      add\n        /* \"#utility.yul\":7346:7372   */\n      swap1\n      pop\n        /* \"#utility.yul\":7418:7427   */\n      dup2\n        /* \"#utility.yul\":7412:7416   */\n      dup2\n        /* \"#utility.yul\":7408:7428   */\n      sub\n        /* \"#utility.yul\":7404:7405   */\n      0x00\n        /* \"#utility.yul\":7393:7402   */\n      dup4\n        /* \"#utility.yul\":7389:7406   */\n      add\n        /* \"#utility.yul\":7382:7429   */\n      mstore\n        /* \"#utility.yul\":7446:7577   */\n      tag_201\n        /* \"#utility.yul\":7572:7576   */\n      dup2\n        /* \"#utility.yul\":7446:7577   */\n      tag_120\n      jump\t// in\n    tag_201:\n        /* \"#utility.yul\":7438:7577   */\n      swap1\n      pop\n        /* \"#utility.yul\":7165:7584   */\n      swap2\n      swap1\n      pop\n      jump\t// out\n        /* \"#utility.yul\":7590:7814   */\n    tag_121:\n        /* \"#utility.yul\":7730:7764   */\n      0x596f75206d7573742073656e6420736f6d6520457468657220746f2065786368\n        /* \"#utility.yul\":7726:7727   */\n      0x00\n        /* \"#utility.yul\":7718:7724   */\n      dup3\n        /* \"#utility.yul\":7714:7728   */\n      add\n        /* \"#utility.yul\":7707:7765   */\n      mstore\n        /* \"#utility.yul\":7799:7806   */\n      0x616e67652e000000000000000000000000000000000000000000000000000000\n        /* \"#utility.yul\":7794:7796   */\n      0x20\n        /* \"#utility.yul\":7786:7792   */\n      dup3\n        /* \"#utility.yul\":7782:7797   */\n      add\n        /* \"#utility.yul\":7775:7807   */\n      mstore\n        /* \"#utility.yul\":7590:7814   */\n      pop\n      jump\t// out\n        /* \"#utility.yul\":7820:8186   */\n    tag_122:\n        /* \"#utility.yul\":7962:7965   */\n      0x00\n        /* \"#utility.yul\":7983:8050   */\n      tag_204\n        /* \"#utility.yul\":8047:8049   */\n      0x25\n        /* \"#utility.yul\":8042:8045   */\n      dup4\n        /* \"#utility.yul\":7983:8050   */\n      tag_110\n      jump\t// in\n    tag_204:\n        /* \"#utility.yul\":7976:8050   */\n      swap2\n      pop\n        /* \"#utility.yul\":8059:8152   */\n      tag_205\n        /* \"#utility.yul\":8148:8151   */\n      dup3\n        /* \"#utility.yul\":8059:8152   */\n      tag_121\n      jump\t// in\n    tag_205:\n        /* \"#utility.yul\":8177:8179   */\n      0x40\n        /* \"#utility.yul\":8172:8175   */\n      dup3\n        /* \"#utility.yul\":8168:8180   */\n      add\n        /* \"#utility.yul\":8161:8180   */\n      swap1\n      pop\n        /* \"#utility.yul\":7820:8186   */\n      swap2\n      swap1\n      pop\n      jump\t// out\n        /* \"#utility.yul\":8192:8611   */\n    tag_79:\n        /* \"#utility.yul\":8358:8362   */\n      0x00\n        /* \"#utility.yul\":8396:8398   */\n      0x20\n        /* \"#utility.yul\":8385:8394   */\n      dup3\n        /* \"#utility.yul\":8381:8399   */\n      add\n        /* \"#utility.yul\":8373:8399   */\n      swap1\n      pop\n        /* \"#utility.yul\":8445:8454   */\n      dup2\n        /* \"#utility.yul\":8439:8443   */\n      dup2\n        /* \"#utility.yul\":8435:8455   */\n      sub\n        /* \"#utility.yul\":8431:8432   */\n      0x00\n        /* \"#utility.yul\":8420:8429   */\n      dup4\n        /* \"#utility.yul\":8416:8433   */\n      add\n        /* \"#utility.yul\":8409:8456   */\n      mstore\n        /* \"#utility.yul\":8473:8604   */\n      tag_207\n        /* \"#utility.yul\":8599:8603   */\n      dup2\n        /* \"#utility.yul\":8473:8604   */\n      tag_122\n      jump\t// in\n    tag_207:\n        /* \"#utility.yul\":8465:8604   */\n      swap1\n      pop\n        /* \"#utility.yul\":8192:8611   */\n      swap2\n      swap1\n      pop\n      jump\t// out\n        /* \"#utility.yul\":8617:8797   */\n    tag_123:\n        /* \"#utility.yul\":8665:8742   */\n      0x4e487b7100000000000000000000000000000000000000000000000000000000\n        /* \"#utility.yul\":8662:8663   */\n      0x00\n        /* \"#utility.yul\":8655:8743   */\n      mstore\n        /* \"#utility.yul\":8762:8766   */\n      0x11\n        /* \"#utility.yul\":8759:8760   */\n      0x04\n        /* \"#utility.yul\":8752:8767   */\n      mstore\n        /* \"#utility.yul\":8786:8790   */\n      0x24\n        /* \"#utility.yul\":8783:8784   */\n      0x00\n        /* \"#utility.yul\":8776:8791   */\n      revert\n        /* \"#utility.yul\":8803:9213   */\n    tag_81:\n        /* \"#utility.yul\":8843:8850   */\n      0x00\n        /* \"#utility.yul\":8866:8886   */\n      tag_210\n        /* \"#utility.yul\":8884:8885   */\n      dup3\n        /* \"#utility.yul\":8866:8886   */\n      tag_98\n      jump\t// in\n    tag_210:\n        /* \"#utility.yul\":8861:8886   */\n      swap2\n      pop\n        /* \"#utility.yul\":8900:8920   */\n      tag_211\n        /* \"#utility.yul\":8918:8919   */\n      dup4\n        /* \"#utility.yul\":8900:8920   */\n      tag_98\n      jump\t// in\n    tag_211:\n        /* \"#utility.yul\":8895:8920   */\n      swap3\n      pop\n        /* \"#utility.yul\":8955:8956   */\n      dup3\n        /* \"#utility.yul\":8952:8953   */\n      dup3\n        /* \"#utility.yul\":8948:8957   */\n      mul\n        /* \"#utility.yul\":8977:9007   */\n      tag_212\n        /* \"#utility.yul\":8995:9006   */\n      dup2\n        /* \"#utility.yul\":8977:9007   */\n      tag_98\n      jump\t// in\n    tag_212:\n        /* \"#utility.yul\":8966:9007   */\n      swap2\n      pop\n        /* \"#utility.yul\":9156:9157   */\n      dup3\n        /* \"#utility.yul\":9147:9154   */\n      dup3\n        /* \"#utility.yul\":9143:9158   */\n      div\n        /* \"#utility.yul\":9140:9141   */\n      dup5\n        /* \"#utility.yul\":9137:9159   */\n      eq\n        /* \"#utility.yul\":9117:9118   */\n      dup4\n        /* \"#utility.yul\":9110:9119   */\n      iszero\n        /* \"#utility.yul\":9090:9173   */\n      or\n        /* \"#utility.yul\":9067:9206   */\n      tag_213\n      jumpi\n        /* \"#utility.yul\":9186:9204   */\n      tag_214\n      tag_123\n      jump\t// in\n    tag_214:\n        /* \"#utility.yul\":9067:9206   */\n    tag_213:\n        /* \"#utility.yul\":8851:9213   */\n      pop\n        /* \"#utility.yul\":8803:9213   */\n      swap3\n      swap2\n      pop\n      pop\n      jump\t// out\n        /* \"#utility.yul\":9219:9447   */\n    tag_124:\n        /* \"#utility.yul\":9359:9393   */\n      0x4e6f7420656e6f75676820746f6b656e7320617661696c61626c6520666f7220\n        /* \"#utility.yul\":9355:9356   */\n      0x00\n        /* \"#utility.yul\":9347:9353   */\n      dup3\n        /* \"#utility.yul\":9343:9357   */\n      add\n        /* \"#utility.yul\":9336:9394   */\n      mstore\n        /* \"#utility.yul\":9428:9439   */\n      0x65786368616e67652e0000000000000000000000000000000000000000000000\n        /* \"#utility.yul\":9423:9425   */\n      0x20\n        /* \"#utility.yul\":9415:9421   */\n      dup3\n        /* \"#utility.yul\":9411:9426   */\n      add\n        /* \"#utility.yul\":9404:9440   */\n      mstore\n        /* \"#utility.yul\":9219:9447   */\n      pop\n      jump\t// out\n        /* \"#utility.yul\":9453:9819   */\n    tag_125:\n        /* \"#utility.yul\":9595:9598   */\n      0x00\n        /* \"#utility.yul\":9616:9683   */\n      tag_217\n        /* \"#utility.yul\":9680:9682   */\n      0x29\n        /* \"#utility.yul\":9675:9678   */\n      dup4\n        /* \"#utility.yul\":9616:9683   */\n      tag_110\n      jump\t// in\n    tag_217:\n        /* \"#utility.yul\":9609:9683   */\n      swap2\n      pop\n        /* \"#utility.yul\":9692:9785   */\n      tag_218\n        /* \"#utility.yul\":9781:9784   */\n      dup3\n        /* \"#utility.yul\":9692:9785   */\n      tag_124\n      jump\t// in\n    tag_218:\n        /* \"#utility.yul\":9810:9812   */\n      0x40\n        /* \"#utility.yul\":9805:9808   */\n      dup3\n        /* \"#utility.yul\":9801:9813   */\n      add\n        /* \"#utility.yul\":9794:9813   */\n      swap1\n      pop\n        /* \"#utility.yul\":9453:9819   */\n      swap2\n      swap1\n      pop\n      jump\t// out\n        /* \"#utility.yul\":9825:10244   */\n    tag_88:\n        /* \"#utility.yul\":9991:9995   */\n      0x00\n        /* \"#utility.yul\":10029:10031   */\n      0x20\n        /* \"#utility.yul\":10018:10027   */\n      dup3\n        /* \"#utility.yul\":10014:10032   */\n      add\n        /* \"#utility.yul\":10006:10032   */\n      swap1\n      pop\n        /* \"#utility.yul\":10078:10087   */\n      dup2\n        /* \"#utility.yul\":10072:10076   */\n      dup2\n        /* \"#utility.yul\":10068:10088   */\n      sub\n        /* \"#utility.yul\":10064:10065   */\n      0x00\n        /* \"#utility.yul\":10053:10062   */\n      dup4\n        /* \"#utility.yul\":10049:10066   */\n      add\n        /* \"#utility.yul\":10042:10089   */\n      mstore\n        /* \"#utility.yul\":10106:10237   */\n      tag_220\n        /* \"#utility.yul\":10232:10236   */\n      dup2\n        /* \"#utility.yul\":10106:10237   */\n      tag_125\n      jump\t// in\n    tag_220:\n        /* \"#utility.yul\":10098:10237   */\n      swap1\n      pop\n        /* \"#utility.yul\":9825:10244   */\n      swap2\n      swap1\n      pop\n      jump\t// out\n        /* \"#utility.yul\":10250:10582   */\n    tag_94:\n        /* \"#utility.yul\":10371:10375   */\n      0x00\n        /* \"#utility.yul\":10409:10411   */\n      0x40\n        /* \"#utility.yul\":10398:10407   */\n      dup3\n        /* \"#utility.yul\":10394:10412   */\n      add\n        /* \"#utility.yul\":10386:10412   */\n      swap1\n      pop\n        /* \"#utility.yul\":10422:10493   */\n      tag_222\n        /* \"#utility.yul\":10490:10491   */\n      0x00\n        /* \"#utility.yul\":10479:10488   */\n      dup4\n        /* \"#utility.yul\":10475:10492   */\n      add\n        /* \"#utility.yul\":10466:10472   */\n      dup6\n        /* \"#utility.yul\":10422:10493   */\n      tag_101\n      jump\t// in\n    tag_222:\n        /* \"#utility.yul\":10503:10575   */\n      tag_223\n        /* \"#utility.yul\":10571:10573   */\n      0x20\n        /* \"#utility.yul\":10560:10569   */\n      dup4\n        /* \"#utility.yul\":10556:10574   */\n      add\n        /* \"#utility.yul\":10547:10553   */\n      dup5\n        /* \"#utility.yul\":10503:10575   */\n      tag_101\n      jump\t// in\n    tag_223:\n        /* \"#utility.yul\":10250:10582   */\n      swap4\n      swap3\n      pop\n      pop\n      pop\n      jump\t// out\n\n    auxdata: 0xa2646970667358221220f3c32c25d34adcb9ec227172a15da9e660af1b1114d5a488cd3b9ecc0f2d0ecd64736f6c634300081a0033\n}\n",
				"bytecode": {
					"linkReferences": {},
					"object": "608060405234801561000f575f80fd5b50604051610f31380380610f3183398181016040528101906100319190610160565b335f806101000a81548173ffffffffffffffffffffffffffffffffffffffff021916908373ffffffffffffffffffffffffffffffffffffffff1602179055508160015f6101000a81548173ffffffffffffffffffffffffffffffffffffffff021916908373ffffffffffffffffffffffffffffffffffffffff16021790555080600281905550505061019e565b5f80fd5b5f73ffffffffffffffffffffffffffffffffffffffff82169050919050565b5f6100eb826100c2565b9050919050565b5f6100fc826100e1565b9050919050565b61010c816100f2565b8114610116575f80fd5b50565b5f8151905061012781610103565b92915050565b5f819050919050565b61013f8161012d565b8114610149575f80fd5b50565b5f8151905061015a81610136565b92915050565b5f8060408385031215610176576101756100be565b5b5f61018385828601610119565b92505060206101948582860161014c565b9150509250929050565b610d86806101ab5f395ff3fe608060405260043610610073575f3560e01c80638da5cb5b1161004d5780638da5cb5b146100f8578063b9e205ae14610122578063d2f7265a1461014a578063fc0c546a146101545761007a565b8063315a095d1461007e5780633ba0b9a9146100a65780633bed33ce146100d05761007a565b3661007a57005b5f80fd5b348015610089575f80fd5b506100a4600480360381019061009f919061084c565b61017e565b005b3480156100b1575f80fd5b506100ba6103a5565b6040516100c79190610886565b60405180910390f35b3480156100db575f80fd5b506100f660048036038101906100f1919061084c565b6103ab565b005b348015610103575f80fd5b5061010c6104e1565b60405161011991906108de565b60405180910390f35b34801561012d575f80fd5b506101486004803603810190610143919061084c565b610504565b005b6101526105d2565b005b34801561015f575f80fd5b506101686107f0565b6040516101759190610952565b60405180910390f35b5f8054906101000a900473ffffffffffffffffffffffffffffffffffffffff1673ffffffffffffffffffffffffffffffffffffffff163373ffffffffffffffffffffffffffffffffffffffff161461020b576040517f08c379a0000000000000000000000000000000000000000000000000000000008152600401610202906109eb565b60405180910390fd5b8060015f9054906101000a900473ffffffffffffffffffffffffffffffffffffffff1673ffffffffffffffffffffffffffffffffffffffff166370a08231306040518263ffffffff1660e01b815260040161026691906108de565b602060405180830381865afa158015610281573d5f803e3d5ffd5b505050506040513d601f19601f820116820180604052508101906102a59190610a1d565b10156102e6576040517f08c379a00000000000000000000000000000000000000000000000000000000081526004016102dd90610a92565b60405180910390fd5b60015f9054906101000a900473ffffffffffffffffffffffffffffffffffffffff1673ffffffffffffffffffffffffffffffffffffffff1663a9059cbb5f8054906101000a900473ffffffffffffffffffffffffffffffffffffffff16836040518363ffffffff1660e01b8152600401610361929190610ab0565b6020604051808303815f875af115801561037d573d5f803e3d5ffd5b505050506040513d601f19601f820116820180604052508101906103a19190610b0c565b5050565b60025481565b5f8054906101000a900473ffffffffffffffffffffffffffffffffffffffff1673ffffffffffffffffffffffffffffffffffffffff163373ffffffffffffffffffffffffffffffffffffffff1614610438576040517f08c379a000000000000000000000000000000000000000000000000000000000815260040161042f906109eb565b60405180910390fd5b8047101561047b576040517f08c379a000000000000000000000000000000000000000000000000000000000815260040161047290610b81565b60405180910390fd5b5f8054906101000a900473ffffffffffffffffffffffffffffffffffffffff1673ffffffffffffffffffffffffffffffffffffffff166108fc8290811502906040515f60405180830381858888f193505050501580156104dd573d5f803e3d5ffd5b5050565b5f8054906101000a900473ffffffffffffffffffffffffffffffffffffffff1681565b5f8054906101000a900473ffffffffffffffffffffffffffffffffffffffff1673ffffffffffffffffffffffffffffffffffffffff163373ffffffffffffffffffffffffffffffffffffffff1614610591576040517f08c379a0000000000000000000000000000000000000000000000000000000008152600401610588906109eb565b60405180910390fd5b806002819055507f388f446e9526fe5c9af20a5919b342370c8a7c0cb05245afe1e545658fa3cdba816040516105c79190610886565b60405180910390a150565b5f3411610614576040517f08c379a000000000000000000000000000000000000000000000000000000000815260040161060b90610c0f565b60405180910390fd5b5f600254346106239190610c5a565b90508060015f9054906101000a900473ffffffffffffffffffffffffffffffffffffffff1673ffffffffffffffffffffffffffffffffffffffff166370a08231306040518263ffffffff1660e01b815260040161068091906108de565b602060405180830381865afa15801561069b573d5f803e3d5ffd5b505050506040513d601f19601f820116820180604052508101906106bf9190610a1d565b1015610700576040517f08c379a00000000000000000000000000000000000000000000000000000000081526004016106f790610d0b565b60405180910390fd5b60015f9054906101000a900473ffffffffffffffffffffffffffffffffffffffff1673ffffffffffffffffffffffffffffffffffffffff1663a9059cbb33836040518363ffffffff1660e01b815260040161075c929190610ab0565b6020604051808303815f875af1158015610778573d5f803e3d5ffd5b505050506040513d601f19601f8201168201806040525081019061079c9190610b0c565b503373ffffffffffffffffffffffffffffffffffffffff167f98e5a745dfe4f0a8952c2d09eeb25746ce9768004ab459c980d7ad1b5152cbd834836040516107e5929190610d29565b60405180910390a250565b60015f9054906101000a900473ffffffffffffffffffffffffffffffffffffffff1681565b5f80fd5b5f819050919050565b61082b81610819565b8114610835575f80fd5b50565b5f8135905061084681610822565b92915050565b5f6020828403121561086157610860610815565b5b5f61086e84828501610838565b91505092915050565b61088081610819565b82525050565b5f6020820190506108995f830184610877565b92915050565b5f73ffffffffffffffffffffffffffffffffffffffff82169050919050565b5f6108c88261089f565b9050919050565b6108d8816108be565b82525050565b5f6020820190506108f15f8301846108cf565b92915050565b5f819050919050565b5f61091a6109156109108461089f565b6108f7565b61089f565b9050919050565b5f61092b82610900565b9050919050565b5f61093c82610921565b9050919050565b61094c81610932565b82525050565b5f6020820190506109655f830184610943565b92915050565b5f82825260208201905092915050565b7f4f6e6c7920746865206f776e65722063616e2063616c6c20746869732066756e5f8201527f6374696f6e2e0000000000000000000000000000000000000000000000000000602082015250565b5f6109d560268361096b565b91506109e08261097b565b604082019050919050565b5f6020820190508181035f830152610a02816109c9565b9050919050565b5f81519050610a1781610822565b92915050565b5f60208284031215610a3257610a31610815565b5b5f610a3f84828501610a09565b91505092915050565b7f496e73756666696369656e7420746f6b656e2062616c616e63652e00000000005f82015250565b5f610a7c601b8361096b565b9150610a8782610a48565b602082019050919050565b5f6020820190508181035f830152610aa981610a70565b9050919050565b5f604082019050610ac35f8301856108cf565b610ad06020830184610877565b9392505050565b5f8115159050919050565b610aeb81610ad7565b8114610af5575f80fd5b50565b5f81519050610b0681610ae2565b92915050565b5f60208284031215610b2157610b20610815565b5b5f610b2e84828501610af8565b91505092915050565b7f496e73756666696369656e742045746865722062616c616e63652e00000000005f82015250565b5f610b6b601b8361096b565b9150610b7682610b37565b602082019050919050565b5f6020820190508181035f830152610b9881610b5f565b9050919050565b7f596f75206d7573742073656e6420736f6d6520457468657220746f20657863685f8201527f616e67652e000000000000000000000000000000000000000000000000000000602082015250565b5f610bf960258361096b565b9150610c0482610b9f565b604082019050919050565b5f6020820190508181035f830152610c2681610bed565b9050919050565b7f4e487b71000000000000000000000000000000000000000000000000000000005f52601160045260245ffd5b5f610c6482610819565b9150610c6f83610819565b9250828202610c7d81610819565b91508282048414831517610c9457610c93610c2d565b5b5092915050565b7f4e6f7420656e6f75676820746f6b656e7320617661696c61626c6520666f72205f8201527f65786368616e67652e0000000000000000000000000000000000000000000000602082015250565b5f610cf560298361096b565b9150610d0082610c9b565b604082019050919050565b5f6020820190508181035f830152610d2281610ce9565b9050919050565b5f604082019050610d3c5f830185610877565b610d496020830184610877565b939250505056fea2646970667358221220f3c32c25d34adcb9ec227172a15da9e660af1b1114d5a488cd3b9ecc0f2d0ecd64736f6c634300081a0033",
					"opcodes": "PUSH1 0x80 PUSH1 0x40 MSTORE CALLVALUE DUP1 ISZERO PUSH2 0xF JUMPI PUSH0 DUP1 REVERT JUMPDEST POP PUSH1 0x40 MLOAD PUSH2 0xF31 CODESIZE SUB DUP1 PUSH2 0xF31 DUP4 CODECOPY DUP2 DUP2 ADD PUSH1 0x40 MSTORE DUP2 ADD SWAP1 PUSH2 0x31 SWAP2 SWAP1 PUSH2 0x160 JUMP JUMPDEST CALLER PUSH0 DUP1 PUSH2 0x100 EXP DUP2 SLOAD DUP2 PUSH20 0xFFFFFFFFFFFFFFFFFFFFFFFFFFFFFFFFFFFFFFFF MUL NOT AND SWAP1 DUP4 PUSH20 0xFFFFFFFFFFFFFFFFFFFFFFFFFFFFFFFFFFFFFFFF AND MUL OR SWAP1 SSTORE POP DUP2 PUSH1 0x1 PUSH0 PUSH2 0x100 EXP DUP2 SLOAD DUP2 PUSH20 0xFFFFFFFFFFFFFFFFFFFFFFFFFFFFFFFFFFFFFFFF MUL NOT AND SWAP1 DUP4 PUSH20 0xFFFFFFFFFFFFFFFFFFFFFFFFFFFFFFFFFFFFFFFF AND MUL OR SWAP1 SSTORE POP DUP1 PUSH1 0x2 DUP2 SWAP1 SSTORE POP POP POP PUSH2 0x19E JUMP JUMPDEST PUSH0 DUP1 REVERT JUMPDEST PUSH0 PUSH20 0xFFFFFFFFFFFFFFFFFFFFFFFFFFFFFFFFFFFFFFFF DUP3 AND SWAP1 POP SWAP2 SWAP1 POP JUMP JUMPDEST PUSH0 PUSH2 0xEB DUP3 PUSH2 0xC2 JUMP JUMPDEST SWAP1 POP SWAP2 SWAP1 POP JUMP JUMPDEST PUSH0 PUSH2 0xFC DUP3 PUSH2 0xE1 JUMP JUMPDEST SWAP1 POP SWAP2 SWAP1 POP JUMP JUMPDEST PUSH2 0x10C DUP2 PUSH2 0xF2 JUMP JUMPDEST DUP2 EQ PUSH2 0x116 JUMPI PUSH0 DUP1 REVERT JUMPDEST POP JUMP JUMPDEST PUSH0 DUP2 MLOAD SWAP1 POP PUSH2 0x127 DUP2 PUSH2 0x103 JUMP JUMPDEST SWAP3 SWAP2 POP POP JUMP JUMPDEST PUSH0 DUP2 SWAP1 POP SWAP2 SWAP1 POP JUMP JUMPDEST PUSH2 0x13F DUP2 PUSH2 0x12D JUMP JUMPDEST DUP2 EQ PUSH2 0x149 JUMPI PUSH0 DUP1 REVERT JUMPDEST POP JUMP JUMPDEST PUSH0 DUP2 MLOAD SWAP1 POP PUSH2 0x15A DUP2 PUSH2 0x136 JUMP JUMPDEST SWAP3 SWAP2 POP POP JUMP JUMPDEST PUSH0 DUP1 PUSH1 0x40 DUP4 DUP6 SUB SLT ISZERO PUSH2 0x176 JUMPI PUSH2 0x175 PUSH2 0xBE JUMP JUMPDEST JUMPDEST PUSH0 PUSH2 0x183 DUP6 DUP3 DUP7 ADD PUSH2 0x119 JUMP JUMPDEST SWAP3 POP POP PUSH1 0x20 PUSH2 0x194 DUP6 DUP3 DUP7 ADD PUSH2 0x14C JUMP JUMPDEST SWAP2 POP POP SWAP3 POP SWAP3 SWAP1 POP JUMP JUMPDEST PUSH2 0xD86 DUP1 PUSH2 0x1AB PUSH0 CODECOPY PUSH0 RETURN INVALID PUSH1 0x80 PUSH1 0x40 MSTORE PUSH1 0x4 CALLDATASIZE LT PUSH2 0x73 JUMPI PUSH0 CALLDATALOAD PUSH1 0xE0 SHR DUP1 PUSH4 0x8DA5CB5B GT PUSH2 0x4D JUMPI DUP1 PUSH4 0x8DA5CB5B EQ PUSH2 0xF8 JUMPI DUP1 PUSH4 0xB9E205AE EQ PUSH2 0x122 JUMPI DUP1 PUSH4 0xD2F7265A EQ PUSH2 0x14A JUMPI DUP1 PUSH4 0xFC0C546A EQ PUSH2 0x154 JUMPI PUSH2 0x7A JUMP JUMPDEST DUP1 PUSH4 0x315A095D EQ PUSH2 0x7E JUMPI DUP1 PUSH4 0x3BA0B9A9 EQ PUSH2 0xA6 JUMPI DUP1 PUSH4 0x3BED33CE EQ PUSH2 0xD0 JUMPI PUSH2 0x7A JUMP JUMPDEST CALLDATASIZE PUSH2 0x7A JUMPI STOP JUMPDEST PUSH0 DUP1 REVERT JUMPDEST CALLVALUE DUP1 ISZERO PUSH2 0x89 JUMPI PUSH0 DUP1 REVERT JUMPDEST POP PUSH2 0xA4 PUSH1 0x4 DUP1 CALLDATASIZE SUB DUP2 ADD SWAP1 PUSH2 0x9F SWAP2 SWAP1 PUSH2 0x84C JUMP JUMPDEST PUSH2 0x17E JUMP JUMPDEST STOP JUMPDEST CALLVALUE DUP1 ISZERO PUSH2 0xB1 JUMPI PUSH0 DUP1 REVERT JUMPDEST POP PUSH2 0xBA PUSH2 0x3A5 JUMP JUMPDEST PUSH1 0x40 MLOAD PUSH2 0xC7 SWAP2 SWAP1 PUSH2 0x886 JUMP JUMPDEST PUSH1 0x40 MLOAD DUP1 SWAP2 SUB SWAP1 RETURN JUMPDEST CALLVALUE DUP1 ISZERO PUSH2 0xDB JUMPI PUSH0 DUP1 REVERT JUMPDEST POP PUSH2 0xF6 PUSH1 0x4 DUP1 CALLDATASIZE SUB DUP2 ADD SWAP1 PUSH2 0xF1 SWAP2 SWAP1 PUSH2 0x84C JUMP JUMPDEST PUSH2 0x3AB JUMP JUMPDEST STOP JUMPDEST CALLVALUE DUP1 ISZERO PUSH2 0x103 JUMPI PUSH0 DUP1 REVERT JUMPDEST POP PUSH2 0x10C PUSH2 0x4E1 JUMP JUMPDEST PUSH1 0x40 MLOAD PUSH2 0x119 SWAP2 SWAP1 PUSH2 0x8DE JUMP JUMPDEST PUSH1 0x40 MLOAD DUP1 SWAP2 SUB SWAP1 RETURN JUMPDEST CALLVALUE DUP1 ISZERO PUSH2 0x12D JUMPI PUSH0 DUP1 REVERT JUMPDEST POP PUSH2 0x148 PUSH1 0x4 DUP1 CALLDATASIZE SUB DUP2 ADD SWAP1 PUSH2 0x143 SWAP2 SWAP1 PUSH2 0x84C JUMP JUMPDEST PUSH2 0x504 JUMP JUMPDEST STOP JUMPDEST PUSH2 0x152 PUSH2 0x5D2 JUMP JUMPDEST STOP JUMPDEST CALLVALUE DUP1 ISZERO PUSH2 0x15F JUMPI PUSH0 DUP1 REVERT JUMPDEST POP PUSH2 0x168 PUSH2 0x7F0 JUMP JUMPDEST PUSH1 0x40 MLOAD PUSH2 0x175 SWAP2 SWAP1 PUSH2 0x952 JUMP JUMPDEST PUSH1 0x40 MLOAD DUP1 SWAP2 SUB SWAP1 RETURN JUMPDEST PUSH0 DUP1 SLOAD SWAP1 PUSH2 0x100 EXP SWAP1 DIV PUSH20 0xFFFFFFFFFFFFFFFFFFFFFFFFFFFFFFFFFFFFFFFF AND PUSH20 0xFFFFFFFFFFFFFFFFFFFFFFFFFFFFFFFFFFFFFFFF AND CALLER PUSH20 0xFFFFFFFFFFFFFFFFFFFFFFFFFFFFFFFFFFFFFFFF AND EQ PUSH2 0x20B JUMPI PUSH1 0x40 MLOAD PUSH32 0x8C379A000000000000000000000000000000000000000000000000000000000 DUP2 MSTORE PUSH1 0x4 ADD PUSH2 0x202 SWAP1 PUSH2 0x9EB JUMP JUMPDEST PUSH1 0x40 MLOAD DUP1 SWAP2 SUB SWAP1 REVERT JUMPDEST DUP1 PUSH1 0x1 PUSH0 SWAP1 SLOAD SWAP1 PUSH2 0x100 EXP SWAP1 DIV PUSH20 0xFFFFFFFFFFFFFFFFFFFFFFFFFFFFFFFFFFFFFFFF AND PUSH20 0xFFFFFFFFFFFFFFFFFFFFFFFFFFFFFFFFFFFFFFFF AND PUSH4 0x70A08231 ADDRESS PUSH1 0x40 MLOAD DUP3 PUSH4 0xFFFFFFFF AND PUSH1 0xE0 SHL DUP2 MSTORE PUSH1 0x4 ADD PUSH2 0x266 SWAP2 SWAP1 PUSH2 0x8DE JUMP JUMPDEST PUSH1 0x20 PUSH1 0x40 MLOAD DUP1 DUP4 SUB DUP2 DUP7 GAS STATICCALL ISZERO DUP1 ISZERO PUSH2 0x281 JUMPI RETURNDATASIZE PUSH0 DUP1 RETURNDATACOPY RETURNDATASIZE PUSH0 REVERT JUMPDEST POP POP POP POP PUSH1 0x40 MLOAD RETURNDATASIZE PUSH1 0x1F NOT PUSH1 0x1F DUP3 ADD AND DUP3 ADD DUP1 PUSH1 0x40 MSTORE POP DUP2 ADD SWAP1 PUSH2 0x2A5 SWAP2 SWAP1 PUSH2 0xA1D JUMP JUMPDEST LT ISZERO PUSH2 0x2E6 JUMPI PUSH1 0x40 MLOAD PUSH32 0x8C379A000000000000000000000000000000000000000000000000000000000 DUP2 MSTORE PUSH1 0x4 ADD PUSH2 0x2DD SWAP1 PUSH2 0xA92 JUMP JUMPDEST PUSH1 0x40 MLOAD DUP1 SWAP2 SUB SWAP1 REVERT JUMPDEST PUSH1 0x1 PUSH0 SWAP1 SLOAD SWAP1 PUSH2 0x100 EXP SWAP1 DIV PUSH20 0xFFFFFFFFFFFFFFFFFFFFFFFFFFFFFFFFFFFFFFFF AND PUSH20 0xFFFFFFFFFFFFFFFFFFFFFFFFFFFFFFFFFFFFFFFF AND PUSH4 0xA9059CBB PUSH0 DUP1 SLOAD SWAP1 PUSH2 0x100 EXP SWAP1 DIV PUSH20 0xFFFFFFFFFFFFFFFFFFFFFFFFFFFFFFFFFFFFFFFF AND DUP4 PUSH1 0x40 MLOAD DUP4 PUSH4 0xFFFFFFFF AND PUSH1 0xE0 SHL DUP2 MSTORE PUSH1 0x4 ADD PUSH2 0x361 SWAP3 SWAP2 SWAP1 PUSH2 0xAB0 JUMP JUMPDEST PUSH1 0x20 PUSH1 0x40 MLOAD DUP1 DUP4 SUB DUP2 PUSH0 DUP8 GAS CALL ISZERO DUP1 ISZERO PUSH2 0x37D JUMPI RETURNDATASIZE PUSH0 DUP1 RETURNDATACOPY RETURNDATASIZE PUSH0 REVERT JUMPDEST POP POP POP POP PUSH1 0x40 MLOAD RETURNDATASIZE PUSH1 0x1F NOT PUSH1 0x1F DUP3 ADD AND DUP3 ADD DUP1 PUSH1 0x40 MSTORE POP DUP2 ADD SWAP1 PUSH2 0x3A1 SWAP2 SWAP1 PUSH2 0xB0C JUMP JUMPDEST POP POP JUMP JUMPDEST PUSH1 0x2 SLOAD DUP2 JUMP JUMPDEST PUSH0 DUP1 SLOAD SWAP1 PUSH2 0x100 EXP SWAP1 DIV PUSH20 0xFFFFFFFFFFFFFFFFFFFFFFFFFFFFFFFFFFFFFFFF AND PUSH20 0xFFFFFFFFFFFFFFFFFFFFFFFFFFFFFFFFFFFFFFFF AND CALLER PUSH20 0xFFFFFFFFFFFFFFFFFFFFFFFFFFFFFFFFFFFFFFFF AND EQ PUSH2 0x438 JUMPI PUSH1 0x40 MLOAD PUSH32 0x8C379A000000000000000000000000000000000000000000000000000000000 DUP2 MSTORE PUSH1 0x4 ADD PUSH2 0x42F SWAP1 PUSH2 0x9EB JUMP JUMPDEST PUSH1 0x40 MLOAD DUP1 SWAP2 SUB SWAP1 REVERT JUMPDEST DUP1 SELFBALANCE LT ISZERO PUSH2 0x47B JUMPI PUSH1 0x40 MLOAD PUSH32 0x8C379A000000000000000000000000000000000000000000000000000000000 DUP2 MSTORE PUSH1 0x4 ADD PUSH2 0x472 SWAP1 PUSH2 0xB81 JUMP JUMPDEST PUSH1 0x40 MLOAD DUP1 SWAP2 SUB SWAP1 REVERT JUMPDEST PUSH0 DUP1 SLOAD SWAP1 PUSH2 0x100 EXP SWAP1 DIV PUSH20 0xFFFFFFFFFFFFFFFFFFFFFFFFFFFFFFFFFFFFFFFF AND PUSH20 0xFFFFFFFFFFFFFFFFFFFFFFFFFFFFFFFFFFFFFFFF AND PUSH2 0x8FC DUP3 SWAP1 DUP2 ISZERO MUL SWAP1 PUSH1 0x40 MLOAD PUSH0 PUSH1 0x40 MLOAD DUP1 DUP4 SUB DUP2 DUP6 DUP9 DUP9 CALL SWAP4 POP POP POP POP ISZERO DUP1 ISZERO PUSH2 0x4DD JUMPI RETURNDATASIZE PUSH0 DUP1 RETURNDATACOPY RETURNDATASIZE PUSH0 REVERT JUMPDEST POP POP JUMP JUMPDEST PUSH0 DUP1 SLOAD SWAP1 PUSH2 0x100 EXP SWAP1 DIV PUSH20 0xFFFFFFFFFFFFFFFFFFFFFFFFFFFFFFFFFFFFFFFF AND DUP2 JUMP JUMPDEST PUSH0 DUP1 SLOAD SWAP1 PUSH2 0x100 EXP SWAP1 DIV PUSH20 0xFFFFFFFFFFFFFFFFFFFFFFFFFFFFFFFFFFFFFFFF AND PUSH20 0xFFFFFFFFFFFFFFFFFFFFFFFFFFFFFFFFFFFFFFFF AND CALLER PUSH20 0xFFFFFFFFFFFFFFFFFFFFFFFFFFFFFFFFFFFFFFFF AND EQ PUSH2 0x591 JUMPI PUSH1 0x40 MLOAD PUSH32 0x8C379A000000000000000000000000000000000000000000000000000000000 DUP2 MSTORE PUSH1 0x4 ADD PUSH2 0x588 SWAP1 PUSH2 0x9EB JUMP JUMPDEST PUSH1 0x40 MLOAD DUP1 SWAP2 SUB SWAP1 REVERT JUMPDEST DUP1 PUSH1 0x2 DUP2 SWAP1 SSTORE POP PUSH32 0x388F446E9526FE5C9AF20A5919B342370C8A7C0CB05245AFE1E545658FA3CDBA DUP2 PUSH1 0x40 MLOAD PUSH2 0x5C7 SWAP2 SWAP1 PUSH2 0x886 JUMP JUMPDEST PUSH1 0x40 MLOAD DUP1 SWAP2 SUB SWAP1 LOG1 POP JUMP JUMPDEST PUSH0 CALLVALUE GT PUSH2 0x614 JUMPI PUSH1 0x40 MLOAD PUSH32 0x8C379A000000000000000000000000000000000000000000000000000000000 DUP2 MSTORE PUSH1 0x4 ADD PUSH2 0x60B SWAP1 PUSH2 0xC0F JUMP JUMPDEST PUSH1 0x40 MLOAD DUP1 SWAP2 SUB SWAP1 REVERT JUMPDEST PUSH0 PUSH1 0x2 SLOAD CALLVALUE PUSH2 0x623 SWAP2 SWAP1 PUSH2 0xC5A JUMP JUMPDEST SWAP1 POP DUP1 PUSH1 0x1 PUSH0 SWAP1 SLOAD SWAP1 PUSH2 0x100 EXP SWAP1 DIV PUSH20 0xFFFFFFFFFFFFFFFFFFFFFFFFFFFFFFFFFFFFFFFF AND PUSH20 0xFFFFFFFFFFFFFFFFFFFFFFFFFFFFFFFFFFFFFFFF AND PUSH4 0x70A08231 ADDRESS PUSH1 0x40 MLOAD DUP3 PUSH4 0xFFFFFFFF AND PUSH1 0xE0 SHL DUP2 MSTORE PUSH1 0x4 ADD PUSH2 0x680 SWAP2 SWAP1 PUSH2 0x8DE JUMP JUMPDEST PUSH1 0x20 PUSH1 0x40 MLOAD DUP1 DUP4 SUB DUP2 DUP7 GAS STATICCALL ISZERO DUP1 ISZERO PUSH2 0x69B JUMPI RETURNDATASIZE PUSH0 DUP1 RETURNDATACOPY RETURNDATASIZE PUSH0 REVERT JUMPDEST POP POP POP POP PUSH1 0x40 MLOAD RETURNDATASIZE PUSH1 0x1F NOT PUSH1 0x1F DUP3 ADD AND DUP3 ADD DUP1 PUSH1 0x40 MSTORE POP DUP2 ADD SWAP1 PUSH2 0x6BF SWAP2 SWAP1 PUSH2 0xA1D JUMP JUMPDEST LT ISZERO PUSH2 0x700 JUMPI PUSH1 0x40 MLOAD PUSH32 0x8C379A000000000000000000000000000000000000000000000000000000000 DUP2 MSTORE PUSH1 0x4 ADD PUSH2 0x6F7 SWAP1 PUSH2 0xD0B JUMP JUMPDEST PUSH1 0x40 MLOAD DUP1 SWAP2 SUB SWAP1 REVERT JUMPDEST PUSH1 0x1 PUSH0 SWAP1 SLOAD SWAP1 PUSH2 0x100 EXP SWAP1 DIV PUSH20 0xFFFFFFFFFFFFFFFFFFFFFFFFFFFFFFFFFFFFFFFF AND PUSH20 0xFFFFFFFFFFFFFFFFFFFFFFFFFFFFFFFFFFFFFFFF AND PUSH4 0xA9059CBB CALLER DUP4 PUSH1 0x40 MLOAD DUP4 PUSH4 0xFFFFFFFF AND PUSH1 0xE0 SHL DUP2 MSTORE PUSH1 0x4 ADD PUSH2 0x75C SWAP3 SWAP2 SWAP1 PUSH2 0xAB0 JUMP JUMPDEST PUSH1 0x20 PUSH1 0x40 MLOAD DUP1 DUP4 SUB DUP2 PUSH0 DUP8 GAS CALL ISZERO DUP1 ISZERO PUSH2 0x778 JUMPI RETURNDATASIZE PUSH0 DUP1 RETURNDATACOPY RETURNDATASIZE PUSH0 REVERT JUMPDEST POP POP POP POP PUSH1 0x40 MLOAD RETURNDATASIZE PUSH1 0x1F NOT PUSH1 0x1F DUP3 ADD AND DUP3 ADD DUP1 PUSH1 0x40 MSTORE POP DUP2 ADD SWAP1 PUSH2 0x79C SWAP2 SWAP1 PUSH2 0xB0C JUMP JUMPDEST POP CALLER PUSH20 0xFFFFFFFFFFFFFFFFFFFFFFFFFFFFFFFFFFFFFFFF AND PUSH32 0x98E5A745DFE4F0A8952C2D09EEB25746CE9768004AB459C980D7AD1B5152CBD8 CALLVALUE DUP4 PUSH1 0x40 MLOAD PUSH2 0x7E5 SWAP3 SWAP2 SWAP1 PUSH2 0xD29 JUMP JUMPDEST PUSH1 0x40 MLOAD DUP1 SWAP2 SUB SWAP1 LOG2 POP JUMP JUMPDEST PUSH1 0x1 PUSH0 SWAP1 SLOAD SWAP1 PUSH2 0x100 EXP SWAP1 DIV PUSH20 0xFFFFFFFFFFFFFFFFFFFFFFFFFFFFFFFFFFFFFFFF AND DUP2 JUMP JUMPDEST PUSH0 DUP1 REVERT JUMPDEST PUSH0 DUP2 SWAP1 POP SWAP2 SWAP1 POP JUMP JUMPDEST PUSH2 0x82B DUP2 PUSH2 0x819 JUMP JUMPDEST DUP2 EQ PUSH2 0x835 JUMPI PUSH0 DUP1 REVERT JUMPDEST POP JUMP JUMPDEST PUSH0 DUP2 CALLDATALOAD SWAP1 POP PUSH2 0x846 DUP2 PUSH2 0x822 JUMP JUMPDEST SWAP3 SWAP2 POP POP JUMP JUMPDEST PUSH0 PUSH1 0x20 DUP3 DUP5 SUB SLT ISZERO PUSH2 0x861 JUMPI PUSH2 0x860 PUSH2 0x815 JUMP JUMPDEST JUMPDEST PUSH0 PUSH2 0x86E DUP5 DUP3 DUP6 ADD PUSH2 0x838 JUMP JUMPDEST SWAP2 POP POP SWAP3 SWAP2 POP POP JUMP JUMPDEST PUSH2 0x880 DUP2 PUSH2 0x819 JUMP JUMPDEST DUP3 MSTORE POP POP JUMP JUMPDEST PUSH0 PUSH1 0x20 DUP3 ADD SWAP1 POP PUSH2 0x899 PUSH0 DUP4 ADD DUP5 PUSH2 0x877 JUMP JUMPDEST SWAP3 SWAP2 POP POP JUMP JUMPDEST PUSH0 PUSH20 0xFFFFFFFFFFFFFFFFFFFFFFFFFFFFFFFFFFFFFFFF DUP3 AND SWAP1 POP SWAP2 SWAP1 POP JUMP JUMPDEST PUSH0 PUSH2 0x8C8 DUP3 PUSH2 0x89F JUMP JUMPDEST SWAP1 POP SWAP2 SWAP1 POP JUMP JUMPDEST PUSH2 0x8D8 DUP2 PUSH2 0x8BE JUMP JUMPDEST DUP3 MSTORE POP POP JUMP JUMPDEST PUSH0 PUSH1 0x20 DUP3 ADD SWAP1 POP PUSH2 0x8F1 PUSH0 DUP4 ADD DUP5 PUSH2 0x8CF JUMP JUMPDEST SWAP3 SWAP2 POP POP JUMP JUMPDEST PUSH0 DUP2 SWAP1 POP SWAP2 SWAP1 POP JUMP JUMPDEST PUSH0 PUSH2 0x91A PUSH2 0x915 PUSH2 0x910 DUP5 PUSH2 0x89F JUMP JUMPDEST PUSH2 0x8F7 JUMP JUMPDEST PUSH2 0x89F JUMP JUMPDEST SWAP1 POP SWAP2 SWAP1 POP JUMP JUMPDEST PUSH0 PUSH2 0x92B DUP3 PUSH2 0x900 JUMP JUMPDEST SWAP1 POP SWAP2 SWAP1 POP JUMP JUMPDEST PUSH0 PUSH2 0x93C DUP3 PUSH2 0x921 JUMP JUMPDEST SWAP1 POP SWAP2 SWAP1 POP JUMP JUMPDEST PUSH2 0x94C DUP2 PUSH2 0x932 JUMP JUMPDEST DUP3 MSTORE POP POP JUMP JUMPDEST PUSH0 PUSH1 0x20 DUP3 ADD SWAP1 POP PUSH2 0x965 PUSH0 DUP4 ADD DUP5 PUSH2 0x943 JUMP JUMPDEST SWAP3 SWAP2 POP POP JUMP JUMPDEST PUSH0 DUP3 DUP3 MSTORE PUSH1 0x20 DUP3 ADD SWAP1 POP SWAP3 SWAP2 POP POP JUMP JUMPDEST PUSH32 0x4F6E6C7920746865206F776E65722063616E2063616C6C20746869732066756E PUSH0 DUP3 ADD MSTORE PUSH32 0x6374696F6E2E0000000000000000000000000000000000000000000000000000 PUSH1 0x20 DUP3 ADD MSTORE POP JUMP JUMPDEST PUSH0 PUSH2 0x9D5 PUSH1 0x26 DUP4 PUSH2 0x96B JUMP JUMPDEST SWAP2 POP PUSH2 0x9E0 DUP3 PUSH2 0x97B JUMP JUMPDEST PUSH1 0x40 DUP3 ADD SWAP1 POP SWAP2 SWAP1 POP JUMP JUMPDEST PUSH0 PUSH1 0x20 DUP3 ADD SWAP1 POP DUP2 DUP2 SUB PUSH0 DUP4 ADD MSTORE PUSH2 0xA02 DUP2 PUSH2 0x9C9 JUMP JUMPDEST SWAP1 POP SWAP2 SWAP1 POP JUMP JUMPDEST PUSH0 DUP2 MLOAD SWAP1 POP PUSH2 0xA17 DUP2 PUSH2 0x822 JUMP JUMPDEST SWAP3 SWAP2 POP POP JUMP JUMPDEST PUSH0 PUSH1 0x20 DUP3 DUP5 SUB SLT ISZERO PUSH2 0xA32 JUMPI PUSH2 0xA31 PUSH2 0x815 JUMP JUMPDEST JUMPDEST PUSH0 PUSH2 0xA3F DUP5 DUP3 DUP6 ADD PUSH2 0xA09 JUMP JUMPDEST SWAP2 POP POP SWAP3 SWAP2 POP POP JUMP JUMPDEST PUSH32 0x496E73756666696369656E7420746F6B656E2062616C616E63652E0000000000 PUSH0 DUP3 ADD MSTORE POP JUMP JUMPDEST PUSH0 PUSH2 0xA7C PUSH1 0x1B DUP4 PUSH2 0x96B JUMP JUMPDEST SWAP2 POP PUSH2 0xA87 DUP3 PUSH2 0xA48 JUMP JUMPDEST PUSH1 0x20 DUP3 ADD SWAP1 POP SWAP2 SWAP1 POP JUMP JUMPDEST PUSH0 PUSH1 0x20 DUP3 ADD SWAP1 POP DUP2 DUP2 SUB PUSH0 DUP4 ADD MSTORE PUSH2 0xAA9 DUP2 PUSH2 0xA70 JUMP JUMPDEST SWAP1 POP SWAP2 SWAP1 POP JUMP JUMPDEST PUSH0 PUSH1 0x40 DUP3 ADD SWAP1 POP PUSH2 0xAC3 PUSH0 DUP4 ADD DUP6 PUSH2 0x8CF JUMP JUMPDEST PUSH2 0xAD0 PUSH1 0x20 DUP4 ADD DUP5 PUSH2 0x877 JUMP JUMPDEST SWAP4 SWAP3 POP POP POP JUMP JUMPDEST PUSH0 DUP2 ISZERO ISZERO SWAP1 POP SWAP2 SWAP1 POP JUMP JUMPDEST PUSH2 0xAEB DUP2 PUSH2 0xAD7 JUMP JUMPDEST DUP2 EQ PUSH2 0xAF5 JUMPI PUSH0 DUP1 REVERT JUMPDEST POP JUMP JUMPDEST PUSH0 DUP2 MLOAD SWAP1 POP PUSH2 0xB06 DUP2 PUSH2 0xAE2 JUMP JUMPDEST SWAP3 SWAP2 POP POP JUMP JUMPDEST PUSH0 PUSH1 0x20 DUP3 DUP5 SUB SLT ISZERO PUSH2 0xB21 JUMPI PUSH2 0xB20 PUSH2 0x815 JUMP JUMPDEST JUMPDEST PUSH0 PUSH2 0xB2E DUP5 DUP3 DUP6 ADD PUSH2 0xAF8 JUMP JUMPDEST SWAP2 POP POP SWAP3 SWAP2 POP POP JUMP JUMPDEST PUSH32 0x496E73756666696369656E742045746865722062616C616E63652E0000000000 PUSH0 DUP3 ADD MSTORE POP JUMP JUMPDEST PUSH0 PUSH2 0xB6B PUSH1 0x1B DUP4 PUSH2 0x96B JUMP JUMPDEST SWAP2 POP PUSH2 0xB76 DUP3 PUSH2 0xB37 JUMP JUMPDEST PUSH1 0x20 DUP3 ADD SWAP1 POP SWAP2 SWAP1 POP JUMP JUMPDEST PUSH0 PUSH1 0x20 DUP3 ADD SWAP1 POP DUP2 DUP2 SUB PUSH0 DUP4 ADD MSTORE PUSH2 0xB98 DUP2 PUSH2 0xB5F JUMP JUMPDEST SWAP1 POP SWAP2 SWAP1 POP JUMP JUMPDEST PUSH32 0x596F75206D7573742073656E6420736F6D6520457468657220746F2065786368 PUSH0 DUP3 ADD MSTORE PUSH32 0x616E67652E000000000000000000000000000000000000000000000000000000 PUSH1 0x20 DUP3 ADD MSTORE POP JUMP JUMPDEST PUSH0 PUSH2 0xBF9 PUSH1 0x25 DUP4 PUSH2 0x96B JUMP JUMPDEST SWAP2 POP PUSH2 0xC04 DUP3 PUSH2 0xB9F JUMP JUMPDEST PUSH1 0x40 DUP3 ADD SWAP1 POP SWAP2 SWAP1 POP JUMP JUMPDEST PUSH0 PUSH1 0x20 DUP3 ADD SWAP1 POP DUP2 DUP2 SUB PUSH0 DUP4 ADD MSTORE PUSH2 0xC26 DUP2 PUSH2 0xBED JUMP JUMPDEST SWAP1 POP SWAP2 SWAP1 POP JUMP JUMPDEST PUSH32 0x4E487B7100000000000000000000000000000000000000000000000000000000 PUSH0 MSTORE PUSH1 0x11 PUSH1 0x4 MSTORE PUSH1 0x24 PUSH0 REVERT JUMPDEST PUSH0 PUSH2 0xC64 DUP3 PUSH2 0x819 JUMP JUMPDEST SWAP2 POP PUSH2 0xC6F DUP4 PUSH2 0x819 JUMP JUMPDEST SWAP3 POP DUP3 DUP3 MUL PUSH2 0xC7D DUP2 PUSH2 0x819 JUMP JUMPDEST SWAP2 POP DUP3 DUP3 DIV DUP5 EQ DUP4 ISZERO OR PUSH2 0xC94 JUMPI PUSH2 0xC93 PUSH2 0xC2D JUMP JUMPDEST JUMPDEST POP SWAP3 SWAP2 POP POP JUMP JUMPDEST PUSH32 0x4E6F7420656E6F75676820746F6B656E7320617661696C61626C6520666F7220 PUSH0 DUP3 ADD MSTORE PUSH32 0x65786368616E67652E0000000000000000000000000000000000000000000000 PUSH1 0x20 DUP3 ADD MSTORE POP JUMP JUMPDEST PUSH0 PUSH2 0xCF5 PUSH1 0x29 DUP4 PUSH2 0x96B JUMP JUMPDEST SWAP2 POP PUSH2 0xD00 DUP3 PUSH2 0xC9B JUMP JUMPDEST PUSH1 0x40 DUP3 ADD SWAP1 POP SWAP2 SWAP1 POP JUMP JUMPDEST PUSH0 PUSH1 0x20 DUP3 ADD SWAP1 POP DUP2 DUP2 SUB PUSH0 DUP4 ADD MSTORE PUSH2 0xD22 DUP2 PUSH2 0xCE9 JUMP JUMPDEST SWAP1 POP SWAP2 SWAP1 POP JUMP JUMPDEST PUSH0 PUSH1 0x40 DUP3 ADD SWAP1 POP PUSH2 0xD3C PUSH0 DUP4 ADD DUP6 PUSH2 0x877 JUMP JUMPDEST PUSH2 0xD49 PUSH1 0x20 DUP4 ADD DUP5 PUSH2 0x877 JUMP JUMPDEST SWAP4 SWAP3 POP POP POP JUMP INVALID LOG2 PUSH5 0x6970667358 0x22 SLT KECCAK256 RETURN 0xC3 0x2C 0x25 0xD3 BLOBBASEFEE 0xDC 0xB9 0xEC 0x22 PUSH18 0x72A15DA9E660AF1B1114D5A488CD3B9ECC0F 0x2D 0xE 0xCD PUSH5 0x736F6C6343 STOP ADDMOD BYTE STOP CALLER "
				},
				"gasEstimates": {
					"creation": {
						"codeDepositCost": "692400",
						"executionCost": "infinite",
						"totalCost": "infinite"
					},
					"external": {
						"exchange()": "infinite",
						"exchangeRate()": "2448",
						"owner()": "2505",
						"token()": "infinite",
						"updateExchangeRate(uint256)": "infinite",
						"withdrawEther(uint256)": "infinite",
						"withdrawTokens(uint256)": "infinite"
					}
				},
				"methodIdentifiers": {
					"exchange()": "d2f7265a",
					"exchangeRate()": "3ba0b9a9",
					"owner()": "8da5cb5b",
					"token()": "fc0c546a",
					"updateExchangeRate(uint256)": "b9e205ae",
					"withdrawEther(uint256)": "3bed33ce",
					"withdrawTokens(uint256)": "315a095d"
				}
			},
			"storageLayout": {
				"storage": [
					{
						"astId": 20,
						"contract": "contracts/moneychanger-project/MoneyChanger.sol:MoneyChanger",
						"label": "owner",
						"offset": 0,
						"slot": "0",
						"type": "t_address"
					},
					{
						"astId": 23,
						"contract": "contracts/moneychanger-project/MoneyChanger.sol:MoneyChanger",
						"label": "token",
						"offset": 0,
						"slot": "1",
						"type": "t_contract(IERC20)18"
					},
					{
						"astId": 25,
						"contract": "contracts/moneychanger-project/MoneyChanger.sol:MoneyChanger",
						"label": "exchangeRate",
						"offset": 0,
						"slot": "2",
						"type": "t_uint256"
					}
				],
				"types": {
					"t_address": {
						"encoding": "inplace",
						"label": "address",
						"numberOfBytes": "20"
					},
					"t_contract(IERC20)18": {
						"encoding": "inplace",
						"label": "contract IERC20",
						"numberOfBytes": "20"
					},
					"t_uint256": {
						"encoding": "inplace",
						"label": "uint256",
						"numberOfBytes": "32"
					}
				}
			},
			"userdoc": {
				"kind": "user",
				"methods": {},
				"version": 1
			}
		}
	}
}